:020000040800F2
:10000000000003205D0600085D2200085F22000852
:100010006122000863220008652200080000000039
:100020000000000000000000000000000165000862
:10003000672200080000000091650008115E0008BA
:10004000AD060008AD060008AD060008AD060008C4
:10005000AD060008AD060008AD060008AD060008B4
:10006000AD060008AD060008AD060008AD060008A4
:10007000AD060008AD060008AD060008AD06000894
:10008000AD060008AD060008AD060008AD06000884
:10009000AD060008AD060008AD060008AD06000874
:1000A000AD060008AD060008AD060008AD06000864
:1000B000AD060008AD060008AD060008AD06000854
:1000C000AD060008AD060008AD060008AD06000844
:1000D000AD060008AD060008AD060008AD06000834
:1000E000AD060008AD060008AD060008AD06000824
:1000F000AD060008AD060008AD060008AD06000814
:10010000AD060008AD060008AD060008AD06000803
:10011000AD060008AD06000869220008AD0600081B
:10012000AD060008AD060008AD060008AD060008E3
:10013000AD060008AD060008AD060008AD060008D3
:10014000AD060008AD060008AD060008AD060008C3
:10015000AD060008AD060008AD060008AD060008B3
:10016000AD060008AD060008AD060008AD060008A3
:10017000AD060008AD060008AD060008000000004E
:10018000AD060008AD060008AD060008AD06000883
:10019000AD060008AD060008AD060008AD06000873
:0C01A00075220008AD060008812200084E
:1001B00010B5054C237833B9044B13B10448AFF3A1
:1001C00000800123237010BD800300200000000088
:1001D0009410020808B5034B1BB103490348AFF361
:1001E000008008BD00000000840300209410020875
:1001F00001F0FF01102A2BDB10F0070F08D010F8D8
:10020000013B013A8B422DD010F0070F42B3F6D1DB
:10021000F0B441EA012141EA014122F007047FF0F4
:1002200000070023F0E80256083C85EA010586EA4B
:10023000010685FA47F5A3FA87F586FA47F6A5FA87
:1002400087F68EB9EED1F0BC01F0FF0102F0070293
:1002500032B110F8013B013A83EA010313B1F8D13E
:100260000020704701387047002D06BF354603381F
:10027000073815F0010F07D1013015F4807F02BF58
:10028000013015F4C03F0130F0BC0138704700BFA9
:100290007BB972B90029BEBF00204FF0004106E0D3
:1002A00008BF00281CBF6FF000414FF0FF3000F086
:1002B000D3B9ADF1080C6DE904CE002909DB002BA0
:1002C0001ADB00F04DF8DDF804E0DDE9022304B0AC
:1002D0007047404261EB4101002B1BDB00F040F80E
:1002E000DDF804E0DDE9022304B0404261EB4101A6
:1002F000524263EB43037047524263EB430300F007
:100300002FF8DDF804E0DDE9022304B0404261EBA0
:1003100041017047524263EB430300F021F8DDF8DE
:1003200004E0DDE9022304B0524263EB430370476B
:1003300053B94AB9002908BF00281CBF4FF0FF314C
:100340004FF0FF3000F088B9ADF1080C6DE904CE34
:1003500000F006F8DDF804E0DDE9022304B07047A0
:100360002DE9F047089D8E4604468846002B4AD169
:100370008A42174662D9B2FA82F64EB1C6F120031C
:1003800001FA06F820FA03F3B74043EA0808B4403C
:100390004FEA174E1FFA87FCB8FBFEF1230C0EFB49
:1003A000118843EA084301FB0CF29A4209D9FB1871
:1003B00001F1FF3080F0EA809A4240F2E780023992
:1003C0003B449A1AA3B2B2FBFEF00EFB102243EAA2
:1003D000024300FB0CFC9C4509D9FB1800F1FF32DD
:1003E00080F0D6809C4540F2D3803B44023840EAFE
:1003F0000140A3EB0C0300211DB1F3400022C5E92D
:100400000032BDE8F0878B4205D90DB1C5E9000186
:1004100000210846F5E7B3FA83F1002946D1734578
:1004200002D3824200F20581841A6EEB030201209E
:100430009046002DE5D0C5E90048E2E7002A00F02B
:100440009080B2FA82F6002E40F0A4808A1A030C43
:100450004FEA174E80B2BCB20121B2FBFEFC0EFB8C
:100460001C2243EA024304FB0CF29A4207D9FB1810
:100470000CF1FF3802D29A4200F2E080C4469B1A87
:10048000B3FBFEF20EFB123340EA034302FB04F41B
:100490009C4207D9FB1802F1FF3002D29C4200F2C5
:1004A000CA8002461B1B42EA0C40A5E7C1F12006A8
:1004B0008B4022FA06F71F430EFA01F420FA06F3E6
:1004C0002EFA06FE4FEA1749234300FA01F81FFAF5
:1004D00087FCBEFBF9F01C0C09FB10EE44EA0E444D
:1004E00000FB0CFEA64502FA01F209D93C1900F105
:1004F000FF3A80F09C80A64540F2998002383C4447
:10050000A4EB0E041FFA83FEB4FBF9F309FB1344BA
:100510004EEA044403FB0CFCA44508D93C1903F142
:10052000FF3E80F08280A4457FD9023B3C4443EAF1
:100530000040A4EB0C04A0FB02EC64457346E146CA
:1005400062D35FD05DB1B8EB030264EB090404FA37
:1005500006F622FA01F31E43CC40C5E900640021EF
:100560004FE7B1FBF2FC010C41EA0E4180B240EAD8
:1005700001423B4638463C46B846BE462026B1FBC3
:10058000F7F1A2EB080241EA0C4166E7014618E7E1
:1005900010462CE7C6F120022EFA02F3B740B14014
:1005A00020FA02F24FEA174E0A43B3FBFEF8BCB240
:1005B0000EFB1833110C41EA034108FB04F9B0406B
:1005C00089454FEA104380B23ED9791808F1FF3CC3
:1005D00001D289451FD8A1EB0901B1FBFEF909FB46
:1005E00004F80EFB191192B242EA0142424529D2A7
:1005F000BA1809F1FF31C4D24245C2D2A9F10201B1
:100600003A44BEE7F0459DD2BEEB02036CEB070C0B
:100610000138E14696E7A7EB09094944A8F1020C25
:10062000B1FBFEF909FB04F8DBE773467FE75046B0
:1006300066E70846FDE63B44023A33E7ACF1020CBC
:100640003B441CE749469CE7A1EB0901C446B1FBCA
:10065000FEF909FB04F8C4E7704700BFDFF834D0A7
:10066000002103E00C4B5B58435004310B480C4B0A
:1006700042189A42F6D30B4A02E0002342F8043BA8
:10068000094B9A42F9D303F045F91FF095FF01F0A9
:1006900081F8704700000320D047020800000020C6
:1006A0006401002080030020085A0120FEE7704703
:1006B00008B500F0BFFDBDE8084000F041BD00F006
:1006C000BBBD704710B5042104461EF088FD2046CE
:1006D00010BD000038B50C4B0C4C18800C4B822020
:1006E00019806368984740F6110398420AD1094D72
:1006F00023682C60822098472B688220DB6898470B
:10070000002038BD0120FCE7A60300204C0000209B
:10071000A4030020A80300204FF4A071F020FFF7ED
:10072000D9BF0000F7B5394D2B6804461B698220FC
:100730009847208000284ED02B680DF106025B6997
:1007400001A982209847324B1B78002B4BD0BDF873
:10075000062040F674639A423FD9ADF80630BDF8E2
:1007600006209B1A9BB20A2B42D90B22B3FBF2F351
:10077000284A1288934201D9013A93B2BDF8042065
:10078000254840F6B8318A4234D8C2F571620E323B
:10079000016892B20F25B2FBF5F2204D2D88AA42D6
:1007A00084BF05F1FF35AAB28A4215468EB22AD916
:1007B000921B91B21A4E3768BB42BAB28CBF9A1ADA
:1007C000D21A92B211440529C4BF05603360036890
:1007D00063803368A38003B0F0BDB32A9CBFB4220A
:1007E000ADF80620BBE7BDF80630A3F5B473B9E752
:1007F0000023C3E7C2F56D62083292B20E2A016887
:10080000C8D800252A46891A89B2D3E7A803002050
:10081000883C0020A4030020A0030020A6030020A1
:100820009C03002037B568460D461446FFF77AFF53
:10083000BDF8000030B1BDF802302B60BDF80430C7
:100840002360012003B030BD032821D8DFE800F089
:10085000020B12190F4B1A68B2FA82F252090421E4
:100860000D4803F0EBBA0B4B5A68B2FA82F2520908
:100870000821F5E7074B9A68B2FA82F25209102173
:10088000EEE7044BDA68B2FA82F252092021E7E778
:10089000704700BFAC03002000100240032821D89D
:1008A000DFE800F0020B12190F4B1A68003A18BF6C
:1008B000012204210D4803F0C1BA0B4B5A68003ADB
:1008C00018BF01220821F5E7074B9A68003A18BFC4
:1008D00001221021EEE7044BDA68003A18BF01222A
:1008E0002021E7E7704700BFAC0300200010024062
:1008F00003280DD8DFE800F00206080A04210548A5
:1009000003F0A1BA0821FAE71021F8E72021F6E761
:10091000704700BF0010024008B5032811D8DFE877
:1009200000F0020A0C0E0421074803F081FA431E6E
:100930005842584108BD0821F6E71021F4E720216C
:10094000F2E70020F3E700BF0010024070B5084D49
:1009500000240126E0B2FFF7DFFF18B12B68012B5E
:1009600018BF2E600134052C05F10405F2D170BDCD
:10097000AC030020012380F8781080F879307047AC
:100980007047002070470000034B4164003918BFD6
:1009900001211970704700BFC74C0120704700202B
:1009A0007047836B0BB10846184770474FF6FF70CE
:1009B0007047406803689B691847704770477047E5
:1009C0007047704710B5044600F04CFD236803499A
:1009D000D3F890302046BDE810401847000000D002
:1009E00008B503680446D3F8843098472368204646
:1009F000DB6F984700F0ECF8236820465B6F984760
:100A0000292001F04BF900F0E3F8236820465B6FE2
:100A10009847F8E710B5044608F08AFB236820469B
:100A2000D3F8BC30BDE81040184700F0FFBC00F020
:100A300003BD00F035BD00F0D5BC00F045BD00F0B1
:100A40004DBD00F0D9BC07F0A1BD10B5842104460E
:100A50001EF0C5FB204610BD10B590F8341090F87C
:100A600078400C4B8C421A7809D03AB90A4A0B49A3
:100A70001488088810800C8001221A7010BD002A8A
:100A8000FCD0054A05491488088810800C80002293
:100A9000F3E700BFC04C0120BC4C0120BE4C01203C
:100AA00070B50D46194635B9094B0A4A0A4840F255
:100AB000FF211FF0D1FAC0E90F52084B003A18BFCE
:100AC00001221A700368BDE87040D3F890301847CF
:100AD000041102083C1102088A110208C64C0120C8
:100AE00008B5094B1B888B4203D8084B1B889342DF
:100AF00005D9074B074A0848A3211FF0ADFA074B59
:100B00001980074B1A8008BDBC4C0120BE4C012047
:100B1000CF110208321202088A110208C24C0120C9
:100B2000C44C0120034690F87A0018B15868036855
:100B30001B68184770470000012108B500220846CD
:100B400005F0F0F90A4B186028B90A4B0A4A282127
:100B50000A481FF081FA00220421012005F08AFAD8
:100B6000074B186018B9074B034A2C21F0E708BD62
:100B7000C003002075120208BE120208ED1202081E
:100B8000BC0300203A130208024B4FF0FF311868F3
:100B900005F012BAC0030020014B186805F038BAFE
:100BA000C0030020024B0021186805F005BA00BF01
:100BB000C0030020FFF7F0BF03480449006800238A
:100BC0001A4605F092BA00BFBC03002004000020C2
:100BD00013B5084C00231A4601A9206805F0B6FA9F
:100BE00020684FF0FF33002201A905F0AFFA02B0F0
:100BF00010BD00BFBC03002003685B6C18470120D8
:100C0000704703689B6A1847FEE740F2EF30704771
:100C1000054B0360054B4FF08062C3F88820BFF39B
:100C20004F8FBFF36F8F7047241C020800E100E074
:100C300010B504464FF45A61FFF7EAFF20461EF054
:100C4000CEFA204610BD000082B0002301930E4B67
:100C50001A6B42F400021A631A6B02F4000201924A
:100C6000019A1A6942F400021A611A6922F4000218
:100C70001A61064B064A1A61064A5A61064B4FF042
:100C800080629A6002B07047003802401C3E00202B
:100C9000E90E0008090C000800E100E008B50A2888
:100CA00009D8DFE800F006100E0808080810101038
:100CB0001000022008BD054B054A064890211FF090
:100CC000CBF90020F6E70120F4E700BF7C1302080F
:100CD00097130208E213020838B50C46887FFFF725
:100CE000DDFFA58AE28A164B2169586342EA054274
:100CF0005A64628BD963521B1A642568082D0ED181
:100D00009A611A615862207F0E4A42EA0062DA61F3
:100D1000E2681A620C4A5961D9601A6038BD002233
:100D2000D8611A61E1680A0A480902F4784200F4BD
:100D3000FC600243C1F3C4010A439A63034AECE72F
:100D400000B002400900010001230200012303005A
:100D500008B50B280BD8DFE800F00612100A0A0AC3
:100D60000A0808080808022008BD0520FCE7054B12
:100D7000054A06486F211FF06FF90020F4E70120B3
:100D8000F2E700BF7C1302082D140208E2130208E8
:100D90002DE9F04191F81D800C464046FFF7D8FF41
:100DA000A77F05463846FFF7D3FF06463846FFF7CC
:100DB00075FFA18A628B444B521A1A649A61228B86
:100DC000521A1A61E28A586342EA01425A6421695E
:100DD0006268D963DA602068802828D0227F0FD823
:100DE000202867D0402865D004281AD0364B45EA21
:100DF000026545F40035B845DD6161D0334A44E011
:100E0000B0F5807F04D0B0F5007FEFD1304800E02E
:100E1000304840EA0262DA61E2681A625E62596151
:100E200032E045EA026242F40032DA61F6E7A06895
:100E3000021DDA62227F45EA026545F40035DD6174
:100E40005E625961017841B1012921D0224B234AC8
:100E500023484FF48D711FF0FFF8DA69418822F4BE
:100E60007F42013922F0100242EA0122DA610121B7
:100E7000154BDA6942F02002DA61DA699206FCD495
:100E800010229A600029B9D0164A1A60BDE8F08194
:100E9000B2F1FF01DA69408822F47F4200F1FF30AD
:100EA00022F0100242EA002242F0100218BF012193
:100EB000DA61DDE745EA0262034B42F40032B4E74F
:100EC00042F20132E1E700BF00B00240012301001D
:100ED000090002000A0002007714020891140208B7
:100EE000E213020801230200024B1B6858680368E2
:100EF0005B691847C84C012070B5044625460A4B6B
:100F00000C30002660602672667245F8203B602235
:100F1000294608F063FA04F55A63EE6024359D42D1
:100F2000FBD1204670BD00BF241C0208034B1A6889
:100F3000D207FCD423229A60704700BF00B0024061
:100F40007047000030B50F4C2568ED07FCD4232511
:100F50000904A56041F001010225FF2B656361646E
:100F6000E0630AD00849656241EA0363E361074B25
:100F700022626061E060236030BDE561039BA36392
:100F8000034BF8E700B00240090001000100020035
:100F90000100030030B50E4C2568ED07FCD4232575
:100FA0001204A56042F001020225FF2B6563626412
:100FB000E063E16008D01B0643F00213E361054BD8
:100FC00065626061236030BD034BE3610123F9E793
:100FD00000B0024001000200020002FF30B50B4CDD
:100FE0002568ED07FCD4232512041B06A56043F4F5
:100FF0000033022542F0010265636264E063E16050
:10100000E361034B65626061236030BD00B0024064
:1010100001000200012070470C2070470C2303FBE5
:101020000100083070470C2303FB010008307047B3
:101030000120704742F27870704742F2787303FBE8
:1010400001000830704742F2787303FB010008305A
:101050007047012070471020704700EB01100830E6
:10106000704700EB011008307047084601F0FABAEB
:1010700010B5034B0360044606F0DDFF204610BDAB
:10108000DC1C020810B50446FFF7F2FF20461421CD
:101090001EF0A5F8204610BD10B5034B03600446B2
:1010A00006F0C9FF204610BDA81C020810B5044672
:1010B000FFF7F2FF20464FF41E511EF090F8204635
:1010C00010BD000010B5034B0360044606F0B3FFEB
:1010D000204610BD741C020810B50446FFF7F2FF4D
:1010E000204618211EF07BF8204610BD10B5094B94
:1010F0000360044600F51E502C30FFF7B9FF04F1E1
:101100002C00FFF7C9FF04F11400FFF7DBFF2046B6
:1011100010BD00BF101D020808B50248FFF7E6FF2A
:1011200008BD00BF9C12002010B50446FFF7DEFF8B
:10113000204642F620111EF052F8204610BD000055
:101140002DE9F34101F010F9054601F011F90024F1
:10115000014623462846224600940EF0ADFF284B58
:10116000284A1A60204601F091FC274D274B284A57
:1011700028489A600EF008FF2B68BFF35B8FDB07EF
:1011800037D428461EF02DF898B3234C234B236008
:1011900004F12C0808F51E5707F1180604F1140095
:1011A0006060C4F80880E760266106F045FF1C4BCC
:1011B0006361404606F040FF1A4BE362384606F092
:1011C0003BFF04F50053184AC3F8AC2704F51F5041
:1011D00001F0D2FC224604F51F51304601F0C2FC5A
:1011E000304601F03FFA11481EF054FF28461EF029
:1011F00004F80F4802B0BDE8F041FFF7E3BB00BFC1
:101200002C4D012048040020981200206804002082
:101210004C040020080000209C120020101D020831
:10122000741C0208A81C0208DC1C02081911000822
:10123000C4030020704700000148FFF7D1BB00BF86
:10124000C403002070B5264E264C274D274B236043
:101250003046FFF751FE284614F034F824480DF0CC
:101260001DF8244B2448DC6000224FF48071C3E950
:10127000121222491A86C3E91A12214983F858200A
:10128000C3E91E011F49C3F880101F491F480B60A6
:10129000F021C3E90422C3E90622C3E90822C3E915
:1012A0000A22C3E90E22C3E91022C3E91422C3E9CA
:1012B00017225A6683F870205A67C3E901650180D6
:1012C0001348018013484FF4A07101801248018037
:1012D00012490A70012283F83420114A1A6070BD45
:1012E000F40400209412002068040020F410020886
:1012F0004C040020C4030020000001010100000193
:10130000000450001A001400C84C0120BC4C0120FD
:10131000C24C0120BE4C0120C44C0120C04C012015
:10132000381B02080148FFF773BC00BFF40400201B
:101330000020704781807047C180704701817047ED
:10134000418170477047704770477047704710B4CD
:10135000C4880368121B84885B6D091B12B25DF898
:10136000044B09B218474FF6FF7383814FF0FF33E8
:1013700003621368C36110607047002070478B8858
:10138000838001207047704780F82610704790F8DE
:101390002600704710B50022B1F90840B1F90A10D3
:1013A000028042808480C18010BD00220280428081
:1013B0008280C28070470177704780ED080A7047CD
:1013C00080F82410704780F825107047012070477E
:1013D000983070478C307047843070477047704742
:1013E00070470000034B902283F85A2383F8582358
:1013F000704700BF00E100E0094A0A49D3680A4883
:10140000C3F30A03013B9BB20B801169C1F30A01CC
:10141000013901801364536B43F001035363704738
:1014200000680140BE3B0020BC3B0020014BD3F8CC
:10143000AC00704700680140024B0122C3F8AC10B9
:101440005A6270470068014010B52C2104461DF017
:10145000C6FE204610BD10B5BC2104461DF0BFFEDF
:10146000204610BD70B5044607F0E5F823689D6E70
:101470000BF0ACFC01462046A8472368054AD3F888
:101480008C502046AC460023BDE87040A2F51631D2
:10149000604700BF00B004D007F0B4B807F0BEB892
:1014A00007F07AB807F0E9B990F8252012B103687F
:1014B0005B691847704790F825201AB190F82420EE
:1014C00002B1186070470000034B4FF080629A60D1
:1014D0004FF080729A60704700E100E0084B4FF0D7
:1014E0008062C3F88820BFF34F8FBFF36F8F4FF038
:1014F0008072C3F88820BFF34F8FBFF36F8F7047A0
:1015000000E100E070B50023124E8380124B0360AF
:10151000336893F8582005460AB1D86C00B998682A
:101520000368DB6A98473368B0FA80F4D86C6409C2
:1015300030B10368DB6A9847002808BF44F0010413
:101540002CB9064B064A07482C211EF085FD28467B
:1015500070BD00BFC84C0120241D0208CF14020832
:101560002D1502086615020870B5254E3568BFF3C3
:101570005B8F15F0010540D130461DF032FE00288A
:101580003BD0204C204B256104F13400C4E90035E8
:10159000C4E90255E584A562A5850DF064F904F15E
:1015A000580009F0D1FB194BA3652046184B40F8B1
:1015B000843BFFF7A7FF174BC4F884302433C4F8EB
:1015C0008C304FF4C803C4E928350023C4F8AC308C
:1015D000C4F8B030C4F8B430C4F8B8300E480F4B7B
:1015E000C4F89050C4F89C50C4F8A850C4F898307F
:1015F0001EF050FD30461DF000FE024870BD00BFD9
:10160000C03B0020C43B0020E4220208441D020825
:10161000BC1D020898220208E11300087822020883
:1016200038B5184C23685BB3174B184A1B6C1188EC
:101630008B4216D1164B198803F008FA236893F8E9
:101640006A200025013283F86A2083F87C50FFF776
:10165000B3FA206807F06CFD2846BDE83840FFF774
:10166000F3B803F0F3F92468236820461B6A98470F
:10167000012384F87C300020BDE83840FFF70EB924
:1016800038BD00BFC84C012000680140BE3B0020AF
:10169000BC3B002007B5064BADF806001B680548AB
:1016A00001220DF1060103F071FF03B05DF804FBA8
:1016B0000C000020C83C002037B50D4D0D4C012119
:1016C000284602F0B5FB01280DD1206804F06EFD1C
:1016D000024640B950238DF8073020680A230DF1E7
:1016E000070104F002FD012004F010FCE7E700BF51
:1016F00000000240843C002030B595B0102200214B
:101700000AA81EF0B0FE1422002103A81EF0ABFEB2
:1017100000241E4B01941A6C42F080521A641B6C18
:1017200003F080530193019B194B02941A6842F411
:1017300040421A601B6803F4404302930122029B5B
:101740004FF48033CDE9082302254FF480030821AC
:10175000CDE90E534FF4B473CDE9101308A8042358
:101760001393129503F0CAF903F08EF90F23CDE914
:1017700003354FF4A0504FF48053CDE90603052103
:1017800003A8059403F096FB15B030BD0038024065
:101790000070004080B59AB002F0CAF8FFF7ACFFC5
:1017A000142200210DA81EF05EFE0024C84B0094F8
:1017B0001A6BC848C84DDFF85C8342F010021A6308
:1017C0001A6B02F010020092009A01941A6B42F018
:1017D00020021A631A6B02F020020192019A02940D
:1017E0001A6B42F080021A631A6B02F080020292B6
:1017F000029A03941A6B42F004021A631A6B02F005
:1018000004020392039A04941A6B42F001021A63D1
:101810001A6B02F001020492049A05941A6B42F0CA
:1018200002021A631A6B02F002020592059A0694EC
:101830001A6B42F040021A631A6B02F040020692E1
:10184000069A07941A6B42F008021A631B6B03F0A6
:101850000803224607933C21079B02F0EFFA9F48BA
:101860000122022102F0EAFA22469C48042102F0F9
:10187000E5FA22469A484FF4405102F0DFFA012679
:101880003C23CDE90D3693480F9403230DA902277D
:10189000109302F0E9F991480DA9CDE90D76CDE953
:1018A0000F4402F0E1F904238C480DA9CDE90D366F
:1018B000CDE90F4702F0D8F94FF4405388480DA9FD
:1018C000CDE90D36CDE90F4702F0CEF90DA98548D7
:1018D0000F94CDE90D6402F0C7F98348834B036090
:1018E00002F0B8F8DFF830E2814B2C62C5E900E382
:1018F00028464FF48043C5E90434C5E90244C5E9EC
:10190000064402F0A9FC1021284602F0EDFE214613
:101910002846784D02F007FF4FF48273C5E9008333
:101920004FF400791823C5E9069328460A23C5E930
:101930000244C5E90444C5E90844AC62EB6203F023
:10194000C9FD8F232246394664488DF824308DF82E
:10195000344002F073FA32464FF47A7309A92846EC
:1019600003F014FE4FF47A7332460DA9284603F0B3
:10197000B9FF3246394659485F4D02F05FFA9DF88B
:101980003430D32B04BF5D4B1E705D4B0126C5E97F
:101990000036102240230024C5E904234FF4C0730D
:1019A000C5E906344FF40063C5E908344FF4005329
:1019B00002274FF00409AB624FF0030A07230DA979
:1019C0002846CDE90D73CDE90F934FF00808C5E91E
:1019D0000249CDE911A7139703F060FC4FF6FF729F
:1019E00009A92846CDE90A86089409960C9403F0C3
:1019F00075FC304601F0C8FF4FF6FF7209A9284672
:101A0000CDE90978CDE90B6403F068FC4FF6FF726D
:101A100009A92846CDE909A8CDE90B9403F05EFC9D
:101A20004FF40C730893089B0C934FF6FF7209A9AF
:101A30002846CDE909980B9603F050FC40F26A5114
:101A4000284603F069FC34220DEB020021461EF00B
:101A50000AFD2C4D2C4B2C61C5E900340923C5E946
:101A600005361D23C5E9073A40F20D1140F2431334
:101A7000C5E9091340F2171040F24713C5E90B03FB
:101A80002846C5E90244AC8685F8364002F0E6FEF9
:101A9000FF214FF4806CF022CDE912140521CDE92D
:101AA00014C14FF4A0730DA9CDE90E24CDE916425F
:101AB00028462246154D1893CDE910370D94ADF800
:101AC00064408DF8664002F094FF114B2B6025E0D6
:101AD0000038024000100240C83D002000080240CB
:101AE000000C0240000002405C3E0020003002403A
:101AF000A0860100C83C0020943C0020883C0020C7
:101B0000400100A0203D002000680140803C0020F2
:101B10001400002000500140005C00401B68984702
:101B20002B68184DDB689847174B2846C5E90034E9
:101B3000C5E90274C5E90A47C5E90C4401F09AFFFA
:101B40003146284602F04CF8FEF7B2FDFEF7AFFD35
:101B500004F06CF90D4A3146404604F08BFA0C4B08
:101B60000C4A186021460C4804F08CF90B4B0C4AC7
:101B7000186021460B4804F085F90B4B186004F0FF
:101B800067F9FEE71C3E002000B00240001E02087C
:101B9000843C00203C1E0208B9160008903C00203E
:101BA000181E0208BF0600088C3C002070477047D2
:101BB0007FB5094B8DF817201B6802930DF11702B2
:101BC0000123009201930A460146044802F0ECFB0F
:101BD00007B05DF804FB00BF10000020C83D0020E6
:101BE0007FB500238DF81730084B1B6802930A4617
:101BF00001230DF11701009101930146044802F001
:101C000063FC9DF8170007B05DF804FB100000208E
:101C1000C83D00201FB5084C24680092CDE901346E
:101C20000A4601230146054802F04EFC003818BF61
:101C3000012004B010BD00BF10000020C83D0020EE
:101C400001F0A2BE10B5064C00222046042102F08D
:101C5000F5F820460122BDE81040042102F0EEB85C
:101C60000008024038B50B4D044601220A484FF4E3
:101C7000005102F0E3F800220421284602F0DEF8C9
:101C80002046FFF707FD28460122BDE83840042121
:101C900002F0D4B800080240000C024038B50B4DE9
:101CA000044600220A484FF4005102F0C7F800220F
:101CB0000421284602F0C2F82046FFF7EBFC284634
:101CC0000122BDE83840042102F0B8B80008024003
:101CD000000C0240F7B5144E144F05460C46304632
:101CE0000022042102F0AAF800224FF400513846E5
:101CF00002F0A4F82846FFF7CDFC0D4B0D481B68F9
:101D0000224601A903F0EEFD384601224FF40051AE
:101D1000019C02F093F830460122042102F08EF873
:101D2000204603B0F0BD00BF00080240000C024096
:101D30000C000020C83C002001F026BE0268034BC6
:101D40009A4201D101F00EBE704700BF0010004062
:101D50007047000082B00E4B00220092596C41F493
:101D600080415964596C01F48041009100990192BD
:101D7000196C41F0805119641B6C03F0805301937E
:101D8000019B0F216FF0010002B001F023BE00BFE4
:101D9000003802400268094B9A4282B00BD10023FE
:101DA0000193074B1A6B42F480521A631B6B03F4C6
:101DB00080530193019B02B0704700BF0030024086
:101DC0000038024007B50F4B02689A4216D1002234
:101DD000A3F5F0430192196B41F4000119631B6BE9
:101DE00003F40003019305215A20019B01F0F2FD49
:101DF0005A2003B05DF804EB01F01EBE03B05DF89D
:101E000004FB00BF00B002402DE9F043044689B056
:101E10001422002103A81EF026FB2268244B9A42BC
:101E200043D1244C244800250095236B43F0040340
:101E30002363236B03F004030093009B0195236B42
:101E400043F001032363236B03F001030193019B20
:101E50004FF012094FF400734FF0010803270426D6
:101E600003A9CDE90339CDE90587079601F0FCFE0A
:101E70004FF480731148079603A9CDE90339CDE9E2
:101E8000058701F0F1FE0295236C43F400032364FF
:101E9000236C03F400030293029B236A43F40003C0
:101EA0002362236A23F40003236209B0BDE8F083B0
:101EB000005C004000380240000802400000024080
:101EC000F0B599B004461422002107A81EF0CBFA01
:101ED00030220DEB020000211EF0C5FA22685E4B95
:101EE0009A4240F0B78008230C93C0231093042338
:101EF00012930CA84FF40033159303F0A3F808B124
:101F0000FFF726FF554B5648002400945A6C42F0C8
:101F100080625A645A6C02F080620092009A0194C6
:101F20001A6B42F020021A631A6B02F0200201922F
:101F3000019A02941A6B42F001021A631A6B02F0C2
:101F400001020292029A03941A6B42F002021A638F
:101F50001A6B02F002020392039A04941A6B42F085
:101F600040021A631A6B02F040020492049A05942C
:101F70001A6B42F004021A631A6B02F00402059213
:101F8000059A06941A6B42F008021A631B6B03F061
:101F90000803069302250E26069B0B964FF48063DA
:101FA00007A9CDE90735CDE9094501F05DFE41F608
:101FB00058032C480B9607A9CDE907350927CDE929
:101FC000094501F051FE032327480B9707A9CDE9E6
:101FD0000735CDE9094501F047FE4FF4706322480B
:101FE0000B9607A9CDE90735CDE9094501F03CFE7F
:101FF0004FF40C631D480B9607A9CDE90735CDE9D1
:10200000094501F031FEC02319480B9607A9CDE917
:102010000735CDE9094501F027FE082315480B9641
:1020200007A9CDE90735CDE9094501F01DFE4FF4BB
:10203000A0530E480B9707A9CDE90735CDE909450F
:1020400001F012FE58202246052101F0C3FC582061
:1020500001F0F2FC19B0F0BD006801400038024008
:102060000014024000000240000402400018024038
:1020700000080240000C024010B5044688B014224B
:10208000002103A81EF0EFF92268144B9A4223D1D5
:1020900003F56843002101915A6C114842F4801203
:1020A0005A645A6C02F480120192019A02911A6BDE
:1020B00042F020021A631B6B03F020030293029B81
:1020C0004FF4607202230321CDE903230523CDE9F8
:1020D000061303A901F0C8FD08B010BD005001406F
:1020E000001402402DE9F04186B0002303932B4BEE
:1020F0001C68002C4FD14FF00108C3F80080284B1A
:1021000000949A6B274842EA08029A639B6B03EAA1
:1021100008030093022703260C25009B01A94FF614
:102120003F03CDE90137CDE9046501F09DFD1E486F
:10213000059501A9CDE90187CDE9034601F094FD9C
:1021400048F233131948059501A9CDE90137CDE9C6
:10215000034601F089FD4FF683731548059501A9E3
:10216000CDE90137CDE9034601F07EFD4CF2037362
:102170001048059501A9CDE90137CDE9034601F0E5
:1021800073FD60230C48059501A9CDE90137CDE920
:10219000034601F069FD06B0BDE8F081643E002011
:1021A00000380240001402400008024000180240BB
:1021B00000100240000C02400004024070B588B0DC
:1021C00000230293204B1A6C42F010021A641B6C1D
:1021D00003F010030293054601A903A8029B02F035
:1021E00013FF069B4BBB02F0FFFE184E184B3360EB
:1021F00040F2E733F360174BB0FBF3F3013B73603E
:10220000304600233361B360B36103F03BFD044605
:1022100080B9304603F00CFC044658B9362001F072
:102220000BFC0F2D0DD822462946362001F0D2FB9B
:10223000094B1D60204608B070BD02F0D5FE40007D
:10224000D3E70124F6E700BF00380240683E0020D3
:102250000010004040420F007C0000207047FEE765
:10226000FEE7FEE7FEE77047014803F01FBC00BF32
:10227000683E0020014802F05FBB00BF203D002007
:10228000014801F023BC00BF1C3E00200120704724
:1022900008B51EF08BF9162303604FF0FF3008BD20
:1022A00008B51EF083F916230360FEE770B50D46EE
:1022B00014460E46731B9C4201DC204670BDAFF3F2
:1022C000008006F8010BF5E770B50D4614460E4682
:1022D000731B9C4201DC204670BD16F8010BAFF366
:1022E0000080F5E74FF0FF3070474FF400534B602C
:1022F0000020704701207047002070470A4A11688B
:1023000008B5034609B909491160106869460344D4
:102310008B4206D91EF04AF90C2303604FF0FF30C0
:1023200008BD1360FCE700BFB03E0020085A012042
:10233000704710B5042104461CF051FF204610BD23
:10234000012908B506D0022908D059B900F0DCFBF4
:10235000006808BD00F0D8FB4068FAE700F0D4FB45
:102360008068F6E70020F4E700487047741E020812
:102370000720704713B5002451B1036801948DF80C
:10238000034001AA9C680DF10303A04702B010BDF1
:102390000846FBE7C0897047008A7047C0887047CD
:1023A00080887047807A00F07F007047807AC0098B
:1023B00070470020704700009FED010A704700BF82
:1023C000000000007047704700F59873086849687E
:1023D00003C370477047704741607047704770474C
:1023E000064BC0F84C310023C0F8503100F5A27301
:1023F000C0F84801C0F84031704700BFA124000870
:10240000012303727047704710B4C26841685410CA
:10241000034601EB6200D20748BF0A599B685DF88A
:10242000044B48BFD35818470346406830B19A68F8
:102430001AB9D86800F0010070470120704710B544
:102440000C2104461CF0CBFE204610BD10B5102117
:1024500004461CF0C4FE204610BD10B54FF4AE710A
:1024600004461CF0BCFE204610BD10B50AF0AEFCC0
:102470000368BDE81040DB6B184710B50446D0F880
:10248000400158B10368DB68984738B1D4F840017F
:1024900003689B6898470023C4F8403110BD0000D2
:1024A0002DE9F14FD0E9556A0746B06803681B6A09
:1024B000984742F27773984205D8444B444AA32187
:1024C00044481DF0C9FD706803681B6A98470F28CF
:1024D00003D8414B3E4AA421F2E7F06803681B6A27
:1024E00098470B2803D83D4B394AA521E8E70AF065
:1024F0006DFCDFF8F09004300AF08DFCD9F8000094
:1025000010B10368DB689847D9F8000010B1036880
:102510001B689847DFF8D080D8F8000010B1036836
:102520005B699847D7F83C0110B103685B6898472E
:10253000D8F8000010B103681B689847D7F83C0131
:1025400010B103689B689847F068036800215B6AD4
:1025500098474FF0000B224BC0F804B0044680F8B7
:1025600008B00360B068036859465B6A984705463F
:1025700000F012FC7068036859465B6A9847294668
:10258000064600F00BFB331DC7F83C61C9F800405C
:10259000C8F80050CAF800302B68C6F808A02846D2
:1025A000DB68EE639847336830461B6898472146DE
:1025B00028460CF0BBFD236820461B69984723681A
:1025C0005B69204601B0BDE8F04F1847E4150208EA
:1025D00072160208441702088B1702082E18020808
:1025E000741F0208104D01200C4D0120044B1B6884
:1025F00093F858200AB1D86C00B99868704700BFAA
:10260000C84C012070B504460D4616460AF0A0FCE1
:10261000104A1460104A2260104A0023C4E9512372
:10262000C4E95333C4E94F330D4B186803680121E3
:102630009B68C4E955659847FFF7D8FF14F0EBFC99
:10264000FFF7D4FF14F062FDFFF7D0FF14F06AFD2E
:10265000204670BD1C4D0120201F0208081F0208E3
:10266000C84C0120064BC0F84C310023C0F8503153
:1026700000F5A273C0F84801C0F84031704700BFB0
:10268000A1240008406A7047806A704770478A88B2
:102690000B8810B5D20A4C88C1699BB251F8220050
:1026A00043EA0443184410BD10B50446BAB1107B88
:1026B00068B1537BD27A1B0203F4E0631A43236AA6
:1026C00003EB82031A888A4202D193F9020010BDFB
:1026D00005D8013880B204330028F3D1F7E7002091
:1026E000F5E710B52C2104461CF079FD204610BDFD
:1026F00030B58BB00446BDF860500895BDF85C500D
:1027000007959DF8505006959DF84C5005959DF8FD
:10271000485004959DF8445003959DF8405002950B
:102720009DF83C500195BDF8385000950CF058F9D3
:10273000064B2360159BE361169B2362199B636222
:102740001A9BA36220460BB030BD00BF981F020841
:10275000704770477047704770477047704710B5B3
:10276000A02104461CF03BFD204610BD2DE9F041A0
:102770001D460368BDF918701B6B04461646984742
:102780002368314620465B6B9847236829462046DC
:102790009B6B9847236839462046DB6BBDE8F041C8
:1027A00018470000094A02604FF4807100228184BA
:1027B000FF21C0E90122C0E90322C0E90522C0E9E6
:1027C000072280F826108262704700BFA823020803
:1027D0002DE9F341044626460CF0FCFA00251D4B7A
:1027E000E56346F8403B04F16C073046FFF7DAFF3B
:1027F0003846FFF7D7FF184BE3664FF4A0732A461D
:10280000C4F89850A4F89C50294600933046F02311
:10281000FFF7ACFF04F104084FF07F43A366314695
:10282000404605F01DFC4FF4967300930A2238468B
:1028300096231421FFF79AFF4FF0FF334046C4E977
:102840002533A4F89C50394605F00AFC204602B016
:10285000BDE8F08100200208102402087047000043
:1028600030B5164D2C6814F001048FB0BFF35B8FA8
:1028700020D128461CF0B5FCE0B13F230993104B52
:102880000893104B104911480A940122CDE90643E0
:102890000423CDE903320A230093CDE90B44CDE9AB
:1028A00001440594FFF724FF09481DF0F3FB284677
:1028B0001CF0A3FC05480FB030BD00BFB43E0020A3
:1028C000E82E0208F42E0208B82E0208B83E0020B6
:1028D0005D2800087047000030B5164D2C6814F0D4
:1028E00001048FB0BFF35B8F20D128461CF079FC28
:1028F000E0B13F230993104B0893104B1049114846
:102900000A940122CDE906430423CDE903321423BE
:102910000093CDE90B44CDE901440594FFF7E8FEAF
:1029200009481DF0B7FB28461CF067FC05480FB0AE
:1029300030BD00BFE43E0020EC2E0208F82E020855
:10294000C82E0208E83E0020D52800087047000085
:1029500030B5164D2C6814F001048FB0BFF35B8FB7
:1029600020D128461CF03DFCE0B13F230993104BD9
:102970000893104B104911480A940122CDE90643EF
:102980000423CDE9033228230093CDE90B44CDE99C
:1029900001440594FFF7ACFE09481DF07BFB284677
:1029A0001CF02BFC05480FB030BD00BF143F0020C9
:1029B000F02E0208FC2E0208D82E0208183F002034
:1029C0004D29000800207047002070470EB403B561
:1029D00003AB002153F8042B01930BF07FFA02B0F4
:1029E0005DF804EB03B070470CB407B504AB53F8C3
:1029F000042B01930BF072FA03B05DF804EB02B004
:102A000070470000436C10B5044673B3038F2BB9B5
:102A1000184B194AC52119481DF01EFBC38E00EB47
:102A200043035B8C0BB30DF074F8238F012B03D899
:102A3000134B144ACB21EEE7E28E531C9BB2092BB9
:102A4000194688BFA3F10A0104EB410140F63F108B
:102A5000498C814209D10A2B04EB420228BF002392
:102A600004EB4303508C588451842046BDE8104049
:102A70000CF052BFD1180208DA18020885190208B2
:102A8000CF190208DD1902080CF00DBF38B518BBCC
:102A9000124B13481C681349B4B1226822440260E7
:102AA000626822440A60A26814440F4B00221A8014
:102AB00000F02AF8054600F025F80C4B1C600C4B82
:102AC0001D600C4B188007E00B4B03600B4B0B6039
:102AD0000B4B1C68002CE8D138BD00BF503F0020D4
:102AE000483F0020443F00204C3F0020204D012063
:102AF000284D0120244D0120042F0208002F020838
:102B0000082F02080020704700487047543F0020FB
:102B100010B5FFF7E1FE044C2060FFF719FF60607D
:102B2000FFF79EFEA06010BD543F002010B50024AA
:102B300004600C6014601C6010BD704710B54FF449
:102B4000AE7104461CF04BFB204610BD10B5044688
:102B5000D0F8580100F013F82046BDE810400AF004
:102B6000B7B9000010B50446FFF74CFD014B2360D8
:102B7000204610BD342002080022026070477047D2
:102B8000704704387047704710B5102104461CF098
:102B900026FB204610BDA0F10400F5E7002282606C
:102BA000024A026018324260C16070478820020801
:102BB00070470000134B70B50446036042F2247561
:102BC00042F25466B54205D0635960191B689847B4
:102BD000343DF7E742F25C65635960191B682C3D90
:102BE0009847B5F57F7FF7D1635960191B682C3D75
:102BF0009847B5F59E7FF7D12046FFF7AEFD2046FA
:102C000070BD00BFB020020810B50446FFF7D2FF28
:102C1000204642F278711CF0E2FA204610BD70B5F1
:102C2000036804461B6B15469847236829462046CF
:102C30005B6BBDE870401847002310B5C0E9013355
:102C4000C0E90333C0E90733C0E905334FF48073AB
:102C50008384064B03600B88C384FF23044680F8FB
:102C6000283008F061F9204610BD00BF7824020822
:102C70002DE9F04100F51D540F2314390A3A91FB58
:102C8000F3F192FBF3F2173402F1040801F1040EA0
:102C900000F1A0034FF00A0C0D460CFB023726464C
:102CA00016F8010F28B1132A0DDC092D0BD8785D19
:102CB00050B901357545F3D10132424504F10404A0
:102CC000EAD1002000E00120BDE8F081FFF746BD19
:102CD0002DE9F04F87B01C46031D05461746002618
:102CE00000F5B47A00930AEB06094FF00008494654
:102CF000009808F1010805F0F4F9B8F1040F09F1A2
:102D00002C09F4D1B036B6F5307FECD1BFB207F163
:102D10003C0205F51D5892B208F11708A4B2002331
:102D2000029205F5005B05EB030A3E46CDF80480F0
:102D3000019911F8012F0191012A19D10AF5B479ED
:102D400022B231B248460393FFF769FF114BDBF81B
:102D50007017DAF8682133F81110126EADF81410FC
:102D6000484605A990470098494605F079F9039B24
:102D7000029A0F36B6B296420AF12C0AD8D1B03375
:102D80000F34B3F5307F08F10408A4B2CBD107B0FB
:102D9000BDE8F08FDC2002082DE9F04F044687B033
:102DA000FFF716FD624B236004F5B47504F58566E4
:102DB0004FF6FF7805F1B007284605A92C35ADF888
:102DC0001480FFF739FFBD42F6D1B542F2D104F5C8
:102DD0001A5708374FF6FF78354606F5DC76284651
:102DE00005A92C35ADF81480FFF726FFB542F6D1C2
:102DF000BD422E46F0D104F51D524E4928461832E8
:102E000000230126FF258380C380038143818381C2
:102E1000C38103824382C3610384438480F82430E6
:102E200080F8256080F8265083620160C3620386C3
:102E3000C0E9053334309042E5D104F50055142241
:102E4000C5F868270A22C5F86C270322C5F8702741
:102E5000C5F87437C822002104F1A0001DF003FB5F
:102E6000354B05F5EB6503F1100253F8041B45F8EB
:102E7000041B9342F9D10A23142203212046FFF7B1
:102E800027FF1E262C220F23B6FBF3F303F2531762
:102E900002FB0343019306F114039BB227444FF056
:102EA00012080293C8EB08130A331BB20093019B6C
:102EB000DDF808904FF4DC7505FB08354FF0000B8A
:102EC0003B4601E04FF0010B4FF0010203F8012FE8
:102ED00005F5856A0FFA89F1009A03935046FFF7CA
:102EE0009EFED5F828244FF00603126EADF814307C
:102EF00005A95046904709F10F095146201D05F0DC
:102F0000AFF81FFA89F9039B2C35BBF1000FD9D01C
:102F1000B8F1120F07F10A0702D14FF01308C1E709
:102F20001E36962EAED1204607B0BDE8F08F00BF0A
:102F3000B0200208102402081A21020800F50052ED
:102F40000A23D2F8701730B4C2F86C371423C2F8D1
:102F500068370131072391FBF3F3C3EBC303C91AAD
:102F60000A4BC2F8701703EB011300F51D5218321B
:102F700003F1100453F8045B42F8045BA342F9D157
:102F800030BC0A231422FFF7A3BE00BFEA200208C8
:102F90002DE9F04F00F5005489B0D4F87077032F75
:102FA000064666D004AD1022002128461DF05BFACB
:102FB000EC4604F5EB6204F5ED6863461068516871
:102FC000E646AEE8030008324245F446F6D1002F4B
:102FD00014BF4FF001084FF002084FEA480A0022E0
:102FE0002846A5EB020CAAEB020919464FF0000E89
:102FF000002F41D191F800B08CF803B00EF1010E12
:10300000BEF1040F01F101010CF1040CF0D1013209
:10301000042A03F10403E3D100214FF00F0E4FF017
:103020000A08844600221CF8013BC3B1D4F8683773
:10303000A3F11409D4F86C3799FBFEF99144B9F166
:10304000090FA3F10A0393FBFEF30B441CD8132BC7
:103050001AD808FB03634B4493F8A030A3B901329C
:10306000042AE0D10123013104290FD00430002BC0
:10307000D7D109B0BDE8F08FB9F1030F9CBF91F82B
:1030800000B00CF818B0B9E70023ECE7002BF0D043
:1030900004F5EB620DF1200C2B4603CB6345106069
:1030A00051601D4602F10802F6D13046D4F86C3763
:1030B000D4F868273946FFF70BFE301D09B0BDE88C
:1030C000F04F0BF035B82DE9F04F8FB0064609AC44
:1030D00014220021204606F25D1B1DF0C4F90127D1
:1030E0005946132300220D46002015F801CFBCF1EC
:1030F000000F04D001300A28F7D1E7540132013B18
:10310000581CA1F10A01EED1002A40F3AA8006F56D
:1031100002594FF0130809F12809474609AB13F883
:1031200008300BB309F5856A0024351D5146284641
:10313000013404F0D6FF0A2C0AF12C0AF6D108F16A
:10314000FF38B8F1FF3FABF10A0BA9F5DC79E5D107
:10315000002206F1A003114697427CDA301D0FB021
:10316000BDE8F04F0AF0E4BF474501D1013FE6E773
:103170006FF0090303FB08F304930A237B43C7EBB7
:1031800007120A324FF4DC740393331D12B204FBAE
:1031900007644D46CDF808B04FF0140A0593029924
:1031A000049811F8013F0291014403980B54002B3D
:1031B00045D0D5F83014D5F82C04079204F22C43EE
:1031C00083E80300D5F83814D5F8340404F2344306
:1031D00083E80300D5F83C34C4F83C34D5F84034D7
:1031E000C4F84034D5F84434C4F84434B5F948340C
:1031F000A4F84834B5F94A34A4F84A3495F84C3464
:1032000084F84C3495F84D3484F84D34B5F84E3488
:10321000A4F84E3495F8503484F8503404F5856C95
:103220000F23604600930FFA8AF1CDF818C0FFF71C
:103230009DFA06980146059804F012FF079A0AF1D4
:103240000F0A1FFA8AFABAF1AA0F05F12C0504F148
:103250002C04A4D18AE719605960198101320A331C
:103260007AE70FB0BDE8F08F2DE9F04F00F51D5A59
:1032700085B005460AF1170A4FF0000900F5005B1A
:10328000C9EB09139BB200934FF00008534613F8A3
:10329000012F002A3DD0DBF86C27DBF8681701937B
:1032A000A2F10A060F230A2096FBF3F64E44A1F181
:1032B000140400FB065094FBF3F44444204401271B
:1032C00080F8A0704FF4DC7046432C20009B4443F0
:1032D00006F585672744C8EB08102F441A440144BB
:1032E000344412B209B238462C44FFF798FC124B12
:1032F000DBF87017D4F8282433F81110126EADF8EB
:103300000C10384603A990473946281D04F0A8FE42
:10331000019B08F10108B8F1040FB8D109F10109C6
:10332000B9F1040F0AF1040AAAD1284605B0BDE894
:10333000F04FFFF7C8BE00BFDC2002082DE9F341C3
:1033400000F500563223D6F874570135C6F8745785
:10335000B5FBF3F203FB1255044665BB1C4F8DF819
:103360000750386802F022FF70B14FF0FF33386821
:103370002A460DF1070102F0E9FE9DF80730502BB7
:1033800002D12046FFF704FED6F86C57D6F86887BE
:10339000D6F870770F353B462A4641462046FFF760
:1033A00067FC58B12046FFF75FFF2046FFF7C6FDD8
:1033B000201D0AF0BDFE02B0BDE8F081C6F86C57D2
:1033C0002B46424639462046FFF782FCF0E700BF15
:1033D000843C0020F02070474FF4A07070472920F3
:1033E000FEF75CBC2820FEF759BC08B5FEF72AFCA6
:1033F000CA20FEF753FCC320FEF734FC0820FEF77A
:1034000031FC5020FEF72EFCCF20FEF747FC0020B9
:10341000FEF728FCC120FEF725FC3020FEF722FC39
:10342000ED20FEF73BFC6420FEF71CFC0320FEF7BA
:1034300019FC1220FEF716FC8120FEF713FCE82091
:10344000FEF72CFC8520FEF70DFC0020FEF70AFCA1
:103450007820FEF707FCCB20FEF720FC3920FEF792
:1034600001FC2C20FEF7FEFB0020FEF7FBFB3420C6
:10347000FEF7F8FB0220FEF7F5FBF720FEF70EFC47
:103480002020FEF7EFFBEA20FEF708FC0020FEF705
:10349000E9FB0020FEF7E6FBB120FEF7FFFB002072
:1034A000FEF7E0FB1B20FEF7DDFBB620FEF7F6FB88
:1034B0000A20FEF7D7FBA220FEF7D4FBC020FEF7C0
:1034C000EDFB1020FEF7CEFBC120FEF7E7FB10203E
:1034D000FEF7C8FBC520FEF7E1FB4520FEF7C2FB67
:1034E0001520FEF7BFFBC720FEF7D8FB9020FEF7A4
:1034F000B9FB3620FEF7D2FBC820FEF7B3FBF22063
:10350000FEF7CCFB0020FEF7ADFBB020FEF7C6FBBC
:10351000C220FEF7A7FBB620FEF7C0FB0A20FEF78D
:10352000A1FBA720FEF79EFB2720FEF79BFB0420B4
:10353000FEF798FB2A20FEF7B1FB0020FEF792FB76
:103540000020FEF78FFB0020FEF78CFBEF20FEF73C
:1035500089FB2B20FEF7A2FB0020FEF783FB002057
:10356000FEF780FB0120FEF77DFB3F20FEF77AFB94
:10357000F620FEF793FB0120FEF774FB0020FEF718
:1035800071FB0620FEF76EFB2C20FEF787FBC820A0
:10359000FEF7D2FB2620FEF781FB0120FEF762FB3F
:1035A000E020FEF77BFB0F20FEF75CFB2920FEF7F7
:1035B00059FB2420FEF756FB0C20FEF753FB0E2090
:1035C000FEF750FB0920FEF74DFB4E20FEF74AFBAD
:1035D0007820FEF747FB3C20FEF744FB0920FEF76E
:1035E00041FB1320FEF73EFB0520FEF73BFB1720B7
:1035F000FEF738FB1120FEF735FB0020FEF732FB0B
:10360000E120FEF74BFB0020FEF72CFB1620FEF717
:1036100029FB1B20FEF726FB0420FEF723FB1120CD
:10362000FEF720FB0720FEF71DFB3120FEF71AFBFB
:103630003320FEF717FB4220FEF714FB0520FEF7B0
:1036400011FB0C20FEF70EFB0A20FEF70BFB2820D7
:10365000FEF708FB2F20FEF705FB0F20FEF702FB0D
:103660001120FEF71BFBC820FEF766FB2920FEF7A2
:1036700015FBBDE808402C20FEF710BB08B5FEF78F
:10368000E1FA0321D320FEF725FB80B208BD10B577
:10369000C4B2022203212046FEF78AFA0A20FEF76E
:1036A000CFFA204600220321FEF782FABDE810403F
:1036B0000220FEF7C5BA38B50446E4B2FEF776FA42
:1036C00000212046FEF78CFA012105462046FEF730
:1036D00087FA40EA052080B238BD10B5C4B2402157
:1036E0002046FEF77DFA030607D54C212046FEF75B
:1036F00077FA003818BF012010BD01224B21204667
:10370000FEF756FA204600224B21FEF751FA002020
:10371000F2E773B50423C4B20E461546D7210DEB6C
:1037200003022046FEF776FA019B1BBA1A0DC3F37B
:103730000B23328020462B8001224B21FEF738FAE2
:1037400000224B212046FEF733FA02B070BD000084
:1037500010B50A4A1378984204460DD05178884231
:103760000AD00BB141B90123D454FEF71FFA204609
:10377000BDE81040FFF78BBF10BD00BF603F0020C9
:1037800010B5C4B209212046FEF72AFA40F0010222
:10379000D2B220460921BDE81040FEF709BA10B5A3
:1037A000C4B209212046FEF71BFA092100F0FE02EF
:1037B0002046BDE81040FEF7FBB938B5C4B20D464F
:1037C00020460A21FEF70CFA40EA0502D2B2204652
:1037D0000A21BDE83840FEF7EBB910B50446FEF704
:1037E000E6F920461F21FFF7E8FF2046BDE810401C
:1037F000FFF7C6BF38B5C4B20D4620460A21FEF712
:10380000EFF920EA0502D2B220460A21BDE838408D
:10381000FEF7CEB910B50446FFF7C1FF20461F21C1
:10382000BDE81040FFF7E6BF10B5C0B20C460B2153
:10383000FEF7D6F9204010BD1F21FFF7F5BF0A465D
:10384000C0B20B21FEF7B4B91F21FFF7F8BF38B59E
:10385000C4B20D4620461721FEF7C2F920EA050240
:10386000D2B220461721BDE83840FEF7A1B970B5A5
:10387000C4B2064604212046FEF7B2F9042100F046
:10388000FB0205462046FEF793F93046F021FFF78C
:10389000DEFF05F0F80220460421FEF789F94922EF
:1038A00020212046FEF784F90220FEF7C9F92046C0
:1038B00001222121FEF77CF920469A224121FEF7C0
:1038C00077F9204601224A21FEF772F920460122AB
:1038D0004B21FEF76DF9204600224B21FEF768F9D7
:1038E000204601225621FEF763F920460122582185
:1038F000FEF75EF9204601224021FEF759F92046E5
:10390000FF220B21FEF754F9BDE870400220FEF7BC
:1039100097B90000054BD3F8882042F47002C3F831
:1039200088204FF000629A60704700BF00ED00E011
:1039300008B50B4B1A6842F400721A601A6842F418
:1039400080621A601A6842F480721A60032000F0E4
:103950002FF80020FEF732FCFEF7FCF9002008BD2E
:10396000003C0240034A044B11681B780B4413606F
:10397000704700BF643F002078000020014B1868AA
:10398000704700BF643F002038B50446FFF7F6FFDC
:10399000631C1CBF054B1B78054618BFE418FFF7D6
:1039A000EDFF431BA342FAD338BD00BF78000020CF
:1039B0000749CA6822F4E0620302120403F4E063D8
:1039C000120C134343F0BF6343F40033CB607047E2
:1039D00000ED00E0164B30B5DC68C4F30224C4F1FE
:1039E0000703251D042B28BF0423062D4FF0FF35A8
:1039F0008CBF033C002405FA03F321EA0303A5402E
:103A000022EA0502A340002843EA0203ACBF00F10A
:103A10006040084A4FEA0313B8BF00F00F00DBB262
:103A2000AABF00F56140135480F8003330BD00BFD9
:103A300000ED00E014ED00E0002807DB044A410936
:103A4000012300F01F00834042F82130704700BF7F
:103A500000E100E010B5044650B1437903F0FF02E5
:103A600013B90271FEF796F901236371002010BDAE
:103A70000120FCE710B5044620B390F8393003F07C
:103A8000FF021BB980F83820FEF79CF9022384F866
:103A90003930236861681A6822F440320A431A6098
:103AA0005A6BA16822F007020A435A631A6CE16854
:103AB0006FF30D020A431A6400200123E06384F8C7
:103AC000393010BD0120FCE770477047036870B5BE
:103AD0005E681D68F207044614D5E90512D51A6818
:103AE00022F480721A60C26B42F00102C2630122AA
:103AF0009A60042380F83930002380F83830436915
:103B000003B19847B20616D5AB0414D523681A68DA
:103B100022F400521A6020229A60E36B43F0020301
:103B2000E363042384F83930002384F83830636970
:103B30000BB120469847300716D5290514D52368C0
:103B40001A6822F400621A6008229A60E36B43F05C
:103B50000403E363042384F83930002384F8383005
:103B600063690BB12046984772070BD56B0509D5E1
:103B700023681A6822F480621A6004229A60204640
:103B8000FFF7A2FFB00714D5A90512D523681A685C
:103B900022F400721A6002229A60E36BE36301234D
:103BA00084F83930002384F8383023690BB120467B
:103BB0009847F20613D5EB0411D523681A6822F44E
:103BC00080521A6010229A60E36BE363012384F849
:103BD0003930002384F838302046FFF776FF70BD77
:103BE000F0B590F83820012A03464FF002002BD0A0
:103BF000012283F8382083F8390003EB0112D2E95F
:103C00000740556A174F44EA0040093C012C9CBF0D
:103C100005F07F4210434FEA01161A6888BF40EA58
:103C2000056091B9516A394001435162012C99698B
:103C3000916103D8596A21F07F41916201220020ED
:103C400083F8392083F83800F0BDD1693940014349
:103C5000D1619919012C896911619CBF25F07F45BB
:103C60001562EBE7F0FFFC002DE9F74FDFF8BC91A0
:103C70006C4A00230D6801249C4004EA0506AC430D
:103C800040F0B7804D68032705F003044FEA43086E
:103C900007FA08FC671E012F6FEA0C0C34D88768FE
:103CA00007EA0C0ECF6807FA08F747EA0E078760A5
:103CB000476827EA060EC5F300179F4047EA0E073C
:103CC0004760C76807EA0C0E8F6807FA08F747EAEB
:103CD0000E07022CC76019D14FEAD30A00EB8A0AFB
:103CE00003F0070BDAF820704FEA8B0B4FF00F0E42
:103CF0000EFA0BFE27EA0E0E0F6907FA0BF747EADA
:103D00000E07CAF8207001E0032CDAD1076804FA24
:103D100008F407EA0C073C4315F4403F046068D000
:103D200000240194D9F8444044F48044C9F8444044
:103D3000D9F8444023F0030707F1804704F4804496
:103D400007F59C37019403F0030C019CD7F808E0B9
:103D50004FEA8C0C0F2404FA0CF42EEA040E324CB9
:103D6000A0424DD004F58064A0424BD004F580649D
:103D7000A04249D004F58064A04247D004F5806495
:103D8000A04245D004F58064A04243D004F580648D
:103D9000A04241D004F58064A0423FD004F5806485
:103DA000A0423DD004F58064A04214BF0A24092437
:103DB00004FA0CF444EA0E04BC609468F74315F46A
:103DC000801F0CBF3C4034439460D46815F4001F3E
:103DD0000CBF3C403443D460546815F4003F0CBF22
:103DE0003C40344354601468ED0354BF3C403443BA
:103DF00014600133102B7FF43DAF03B0BDE8F08FAA
:103E00000024D5E70124D3E70224D1E70324CFE738
:103E10000424CDE70524CBE70624C9E70724C7E738
:103E20000824C5E7003C0140000002400038024081
:103E30000369194214BF0120002070470AB1816153
:103E400070470904FBE7436901EA030221EA030121
:103E500041EA02418161704701684B6913F4806354
:103E60004FF0000210D06FF480634B612023026397
:103E700080F83D3080F83E20036C80F83C2043F011
:103E80000403036401207047184670472DE9F84683
:103E900006460F4691461D464FEA114A3368BAF16D
:103EA000010F0CBF5C699C6927EA0404A4B2B4FA50
:103EB00084F46409A14501D0002025E06A1CEED0FD
:103EC000FFF75CFD089BC01AA84201D8002DE5D180
:103ED0003368BAF1010F0CBF5B699B6927EA0303E2
:103EE0009BB2B3FA83F35B099945D7D10023202213
:103EF000336386F83D2086F83E30326C86F83C30DD
:103F000042F0200232640120BDE8F8862DE9F0413C
:103F100004460F46164698462568686927EA000059
:103F200080B2C0B16B695A0517D52B6843F4007392
:103F30002B606FF480636B6120220023236384F87D
:103F40003D2084F83E30236C43F0040323640023B7
:103F500084F83C300120BDE8F081731CDDD0FFF710
:103F60000DFDA0EB0800B04201D8002ED4D123688B
:103F70005A6927EA020292B2002ACDD000232022F9
:103F8000236384F83D2084F83E30236C1343DDE73F
:103F900070B504460D46164623685B691B0601D5BD
:103FA00000201EE02046FFF757FFC8B96A1CF3D077
:103FB000FFF7E4FC801BA84201D8002DECD1236858
:103FC0005B6913F08003E7D12022236384F83D204E
:103FD00084F83E30226C84F83C3042F020022264A7
:103FE000012070BD2DE9F0431546026885B0DDE97A
:103FF0000C789946136843F4807313600E463B4671
:10400000CDF8008000224FF001110446FFF73EFF7B
:10401000236838B11B68DB0502D54FF400732364B5
:10402000032620E006F0FE061E611A4943463A4682
:104030002046FFF76BFFA8B9236803905A690392E3
:104040009B690393424639462046039BFFF7A0FF36
:10405000064660B1236C042B01BF2268136843F449
:10406000007313600126304605B0BDE8F083B9F156
:10407000010F236802D1EDB21D61F4E72A0A1A612B
:10408000394642462046FFF783FF0028E2D12368E5
:10409000F1E700BF020001002DE9FF479A460368DF
:1040A00015461A6842F480621A601A68DDE90C78D5
:1040B00042F480721A600E463B46CDF80080002222
:1040C0004FF001110446FFF7E1FE236838B11B6889
:1040D000DB0544BF4FF400732364032021E05FFA43
:1040E00086F906F0FE061E612B4943463A462046F5
:1040F000FFF70CFFA0B9236803905A6903929B69EC
:104100000393424639462046039BFFF741FF58B1CF
:10411000236C042B01BF2268136843F400731360FF
:10412000012004B0BDE8F087BAF1010F23681AD16D
:10413000EDB242461D6139462046FFF729FF02468F
:104140000028E5D121680B6843F480730B6020469A
:10415000CDF800803B464FF00111FFF797FE226833
:1041600060B11368B4E72A0A1A613946424620460C
:10417000FFF70EFF0028CBD12368D9E749F00103F0
:104180001361054943463A462046FFF7BFFE003813
:1041900018BF0120C5E700BF0200010070B504464A
:1041A0000D46164623685B695B0701D500201EE0BB
:1041B0002046FFF751FEC8B96A1CF3D0FFF7DEFBBB
:1041C000801BA84201D8002DECD123685B6913F055
:1041D0000403E7D12022236384F83D2084F83E3095
:1041E000226C84F83C3042F020022264012070BD31
:1041F00070B504460D46164621684B6913F040031E
:1042000001D0002011E04A69D2060FD56FF01002EC
:104210004A612022236384F83D2084F83E30236CD9
:104220002364002384F83C30012070BDFFF7A6FB17
:10423000801BA84201D8002DDED123685B6913F0F2
:104240004003D9D12022236384F83D2084F83E30F6
:10425000236C1343E4E7000070B5044608B901205D
:1042600070BD90F83D3003F0FF021BB980F83C2090
:10427000FDF7CAFD242384F83D3023681A6822F034
:1042800001021A601A6842F400421A601A6822F4A5
:1042900000421A6000F0A8FE3F4B65689D4294BF43
:1042A0003E4B3F4B98428CBF00230123002BD6D1BD
:1042B0002268394E51683B4BB0FBF3F321F03F01CC
:1042C0001943B542516088BF4FF49676116A88BF92
:1042D000734321F03F0184BF4FF47A76B3FBF6F3CA
:1042E00001330B431362D169431E2B4821F44F4124
:1042F000854221F0FF0132D86D0040F6FC70B3FB1F
:10430000F5F30133034242D0C3F30B031943D161E8
:10431000D4E907301168034321F0C0010B43136057
:104320009168D4E9030321F40341034321F0FF0121
:104330000B439360D4E90530D168034321F0FF01BA
:104340000B43D360136843F0010313600020202364
:10435000206484F83D30206384F83E0080E7A06844
:1043600050B905EB4505B3FBF5F30133C3F30B037C
:104370007BB143F40043C9E719206843B3FBF0F372
:104380000133C3F30B0323B143F44043BEE70423DB
:10439000BCE70123BAE700BFA08601007F841E00AE
:1043A000FF083D0040420F002DE9F74304469946BF
:1043B0000C9E0F469046FFF7E1FA94F83D30202B13
:1043C000054603D0022003B0BDE8F08300903C49CD
:1043D000192301222046FFF759FD0028F2D194F855
:1043E0003C30012BEED02068012384F83C30036878
:1043F000D9075EBF036843F001030360036823F439
:1044000000630360212384F83D30402384F83E306C
:10441000002323640A9B6362BDF82C306385638D9F
:104420002385284BE3624246CDE900654B46394679
:104430002046FFF7D7FD00282AD00120C3E7FFF769
:10444000A7FD40B1236C042B01BF2268136843F41D
:1044500000731360F1E7636A27681A4612F8011BBC
:1044600039616262628D218D013A92B262857A6908
:10447000481E80B2520720850AD548B15A783A6161
:1044800002336362638D013B02399BB221856385F0
:10449000238D2A4631462046002BD0D1FFF77EFEE1
:1044A0000028CFD12268136843F4007313602023DF
:1044B00084F83D3084F83C0084F83E0083E700BF78
:1044C000020010000000FFFF2DE9F043044687B012
:1044D0009946109F0D469046FFF750FA94F83D30EC
:1044E000202B064604D00225284607B0BDE8F083FD
:1044F00000907A49192301222046FFF7C7FC0028C3
:10450000F1D194F83C30012BEDD02068012384F8E0
:104510003C300368DB075EBF036843F001030360C0
:10452000036823F400630360222384F83D304023B2
:1045300084F83E30002323640E9B6362BDF83C3058
:104540006385638D2385664BE3622946CDE900765A
:104550004B4642462046FFF79FFD054608B1012520
:10456000C2E7228D2368B2B902905A6902929A6911
:104570000292029A1A6842F400721A60DFF86481AB
:10458000238D002B2CD1202284F83D2084F83C3050
:1045900084F83E30A8E7012A0AD11A6822F4806222
:1045A0001A6003905A6903929A690392039AE1E7A9
:1045B000022A0ED11A6822F480621A601A6842F444
:1045C00000621A6004905A6904929B690493049BE8
:1045D000D4E705905A6905929B690593059BCDE741
:1045E000032B56D8012B15D1324639462046FFF70A
:1045F000FFFD0028B3D123681A69636A1A70636AE1
:1046000001336362238D013B2385638D013B9BB2A4
:104610006385B5E7022B00963B464FF0000241460A
:10462000204619D1FFF732FC002898D123681A6878
:1046300042F400721A601A69636A1A70626A531C43
:104640006362238D013B2385638D013B9BB26385B0
:1046500023681B695370D2E7FFF718FC0246002855
:104660007FF47DAF2368196821F4806119601969AE
:10467000636A1970636A01336362238D013B23858A
:10468000638D013B9BB26385414600963B462046C5
:10469000C8E7324639462046FFF7AAFD00287FF4D6
:1046A0005EAF23681A69636A1A70628D616A013AA3
:1046B00092B24B1C628522686362238D5069013B74
:1046C0009BB2400723857FF55BAF032B02BF1368C6
:1046D00023F48063136013694B7090E702001000AD
:1046E0000000FFFF0400010010B590F83D30202BC2
:1046F000DCB216D1242380F83D3003681A6822F01A
:1047000001021A605A6A22F010025A625A6A114370
:1047100059621A6842F001021A6080F83D40002098
:1047200010BD0220FCE730B590F83D30202BDCB204
:1047300016D10268242380F83D30136823F001036A
:104740001360556A4FF6F0732B400B439BB25362D4
:10475000136843F00103136080F83D40002030BD32
:104760000220FCE70068D1F800C0D201843283182F
:104770002DE9F043C6685D684C68D1F8189005F4DF
:1047800070455D60C5680CF10107C5F30B45C6F3C4
:104790000B4626443D4445EA06455D60C668CD6843
:1047A000C6F30A062E449D6805F470459D60C768EF
:1047B0008D68C7F30A0701353D4445EA06459D600B
:1047C0001D690E6925F007051D614FF0000E1E6181
:1047D00091F832709D6991F83180C3F818E091F832
:1047E000305045EA096545EA082545EA07459D61D7
:1047F0005D6925F0FF055D614D695D61DD6925F449
:10480000E06525F00705DD61D1E907573D43DD612E
:104810009D6A4D6AC3F828E0072E9D629CBF0E4D2D
:10482000AE5DDD6A05F0E025DD6288BF01268D6A98
:10483000C96AA4EB0C0474437543033444EA054489
:10484000DC621C6B6FF30A041C631963835843F02A
:1048500001038350BDE8F0837221020838B5044695
:10486000002863D090F8A13003F0FF021BB980F854
:10487000A020FDF725FB022384F8A13023689A6964
:1048800022F070429A61D4E901200243E0689969FC
:104890000243206902430A439A619A682449606985
:1048A0000A409A609A6842EA0042A06902439A600C
:1048B000DA68E0690A40DA60DA6842EA0042206AAF
:1048C0000243DA601A69606A0A401A611A6942EAA8
:1048D0000042A06A02431A615A690A405A615A6941
:1048E000E16A42EA0142216B0A435A61DA6A94F8AA
:1048F000350094F8361002F07F42DA62DD6A94F8EF
:1049000034202A4342EA002242EA0142DA625A6B28
:1049100042F006025A639A6942F001029A6100204D
:104920000123C4F8A40084F8A13038BD0120FCE7BD
:1049300000F800F070477047036870B59E6B5D6BC0
:104940007207044614D5690712D55A6B22F0040287
:104950005A630422DA63D0F8A43043F00103C0F8AC
:10496000A430002380F8A12080F8A030FFF7E2FFF8
:10497000B20716D5AB0714D523685A6B22F0020292
:104980005A630222DA63D4F8A4301343C4F8A43083
:10499000042384F8A130002384F8A0302046FFF7D8
:1049A000C9FFF00710D5E9070ED523685A6B22F02E
:1049B00001025A630122DA63002384F8A12084F8FB
:1049C000A0302046FCF72CFE320711D52B070FD55F
:1049D00023685A6B22F008025A630822DA63012323
:1049E00084F8A130002384F8A0302046FFF7A3FF0D
:1049F00070BD2DE9F04190F8A030012B06460F461E
:104A000094464FF002001FD04FF0010886F8A080B6
:104A100086F8A10034240D4604FB02640FCD38341F
:104A20000FC40FCD0FC40FCD0FC42B6823603046C9
:104A300062463946FFF796FE33680020C3F82480AB
:104A400086F8A18086F8A000BDE8F08190F8A0204B
:104A5000012A03464FF0020012D01A6883F8A10021
:104A6000506B20F00100506306480164516B41F027
:104A7000010151630020012283F8A12083F8A000E6
:104A8000704700BF0068014037B500230193184B01
:104A9000184D1A6C42F080521A641B6C03F080535C
:104AA0000193019B144B01221A64FEF767FF044631
:104AB0006B68DA030BD5104B0E4D01225A64FEF7DA
:104AC0005DFF04466B689B030AD5002006E0FEF7F5
:104AD00055FF001BB0F57A7FEAD9032003B030BD43
:104AE000FEF74CFF001BB0F57A7FEBD9F5E700BF6E
:104AF000003802400070004000000E422DE9F341F2
:104B0000044640B30368DE0710D423689D075BD4D6
:104B10002368190700F19D8023685A0700F1BD80C2
:104B2000A369002B40F0248100202CE08D4B9A6873
:104B300002F00C02042A07D09A6802F00C02082A3C
:104B40000BD15B68590208D5864B1B689A03DCD5EC
:104B50006368002BD9D1012015E06368814DB3F55E
:104B6000803F13D12B6843F480332B60FEF706FFA0
:104B70007C4E054633689B03C7D4FEF7FFFE401BFF
:104B80006428F7D9032002B0BDE8F081B3F5A02F67
:104B900004D12B6843F480232B60E3E72A6822F4D6
:104BA00080322A602A6822F480222A60002BDDD11C
:104BB000FEF7E4FE06462B689F03A6D5FEF7DEFE51
:104BC000801B6428F7D9DDE7664B9A6812F00C0F5A
:104BD00007D09A6802F00C02082A11D15B685D02C6
:104BE0000ED4604A1368990702D5E368012BB2D14D
:104BF0001368216923F0F80343EAC103136087E7D0
:104C0000E268594BB2B101221A60FEF7B7FE554D6A
:104C100006462B689B0707D52B68226923F0F8030B
:104C200043EAC2032B6073E7FEF7A8FE801B02284D
:104C3000EFD9A7E71A60FEF7A1FE4A4E0546336892
:104C40009F077FF565AFFEF799FE401B0228F6D956
:104C500098E76269444B82B10122C3F8802EFEF7C7
:104C60008DFE404E0546736F9B073FF555AFFEF72F
:104C700085FE401B0228F6D984E7C3F8802EFEF794
:104C80007DFE384E0546736F9F077FF545AFFEF7F3
:104C900075FE401B0228F6D974E7324B1A6C12F0ED
:104CA000805228D101921A6C42F080521A641B6C17
:104CB00003F080530193019B01272C4D2B68D805ED
:104CC0001BD5A368274D012B27D12B6F43F0010380
:104CD0002B67FEF753FE234E054641F28838336FAB
:104CE0009A0739D5002F3FF41BAF1E4A136C23F0EF
:104CF0008053136414E70027DFE72B6843F48073C5
:104D00002B60FEF73BFE06462B68D905D9D4FEF78B
:104D100035FE801B0228F7D934E7052B04D12B6F11
:104D200043F004032B67D0E72A6F22F001022A67C1
:104D30002A6F22F004022A67002BCAD1FEF71EFE5A
:104D400041F2883806462B6F9B07CBD5FEF716FE3F
:104D5000801B4045F7D915E7FEF710FE401B404584
:104D6000BDD90FE700380240000047420070004004
:104D7000374DAA6802F00C02082A3ED0022B354BB0
:104D80004FF000021A662BD1FEF7F8FD06462B689D
:104D900099011FD4D4E907321343626A43EA8213AC
:104DA000E26A43EA0263A26A5208013A43EA024312
:104DB0006B60284B264D01221A66FEF7DFFD044684
:104DC0002B689A013FF5B0AEFEF7D8FD001B022814
:104DD000F6D9D7E6FEF7D2FD801B0228D7D9D1E657
:104DE000FEF7CCFD04462B689B017FF59DAEFEF7D8
:104DF000C5FD001B0228F6D9C4E6012B3FF4ABAE7B
:104E00006B68E26903F4800191427FF4A4AE216AE9
:104E100003F03F028A427FF49EAE616A47F6C07299
:104E20001A40B2EB811F7FF496AEA26A520803F4D7
:104E30004031013AB1EB024F7FF48DAEE26A03F0EC
:104E40007063B3EB026F14BF012000209BE600BF2C
:104E50000038024000004742134908B58B6803F050
:104E60000C03042B1CD0082B1CD14A684B684968E2
:104E700013F4800314BF0D480D48C1F3881118BF07
:104E8000002302F03F02A1FB0001FBF751FA064BA1
:104E90005B68C3F3014301335B00B0FBF3F008BD73
:104EA0000248FCE70248FAE70038024000127A00A4
:104EB0000024F4002DE9F0410D46044610B901200C
:104EC000BDE8F081434B1A6802F00F028A4228D3F2
:104ED00021688F072DD4C80740D43E4B1A6802F0D2
:104EE0000F02AA4265D8226851076BD4130707D571
:104EF000394A2169936823F4604343EAC10393600C
:104F0000FFF7AAFF344B354A9B68C3F30313D35C06
:104F1000D840334B1860334B1868FDF74FF9002029
:104F2000CEE7CAB21A701B6803F00F038B42C6D1DA
:104F3000CEE7294B11F0040F1EBF9A6842F4E052ED
:104F40009A600E0742BF9A6842F460429A609A687B
:104F5000A06822F0F00202439A60BCE762681E4B30
:104F6000012A1CD11B6813F4003FA8D01A4EB36865
:104F700023F003031343B360FEF700FD41F28838CA
:104F80000746B368626803F00C03B3EB820FA4D04A
:104F9000FEF7F4FCC01B4045F3D9032090E7911EB7
:104FA00001291B6802D813F0007FDEE713F0020F1F
:104FB000DBE7EAB21A701B6803F00F03AB427FF421
:104FC0007EAF90E70449E0688B6823F4E053034325
:104FD0008B608BE7003C02400038024062210208EF
:104FE000740000207C000020044B054A9B68C3F33A
:104FF0008223D35C034A1068D840704700380240CF
:105000005A210208740000200F2303600B4B9A689A
:1050100002F0030242609A6802F0F00282609A682D
:1050200002F4E052C2609B68DB0803F4E0530361C2
:10503000034B1B6803F00F030B60704700380240FE
:10504000003C0240036813F0430FF7B5044640F0FC
:105050008880236813F00C0F45D08C4B8C4D0022B8
:105060001A67FEF78BFC06462B68990000F1CB808F
:1050700021684A0715D5D4E90403D5F888201B0612
:1050800002F0E04243EA80131343C5F88830D5F8B4
:105090008C30226A23F4F853013A43EA0223C5F81C
:1050A0008C300B0714D57A4AA369D2F8881020698E
:1050B0001B0701F0706143EA80130B43C2F888308C
:1050C000D2F88C30616A23F440330B43C2F88C3041
:1050D0006E4B6F4E01221A67FEF750FC054633688F
:1050E0009F0040F197802368980634D500230193F0
:1050F000674B684D1A6C42F080521A641B6C03F0C7
:1051000080530193019B2B6843F480732B60FEF75F
:1051100035FC06462B68D80540F183805C4DA26AB9
:105120002B6F13F4407340F08380A36A03F4407242
:10513000B2F5407F564A40F09E80916823F070405F
:1051400021F4F81120F4407001439160116FC3F312
:105150000B030B4313672368DB0600F190800020EC
:105160004FE04A4B4A4E00229A66FEF707FC05467E
:1051700033681F013FD42168C80741BFD4E9012328
:105180001B0743EA8213C6F884308A0715D5404AC4
:10519000E368D2F8840065681B0600F0E04043EA4B
:1051A00085130343C2F88430D2F88C00E36920F001
:1051B0001F00013B0343C2F88C304B060AD5E3685D
:1051C00062681B0643EA8213A26843EA0273304A0C
:1051D000C2F884302D4B2E4E01229A66FEF7CEFB8C
:1051E000054633681F013FF534AFFEF7C7FB401B90
:1051F0000228F6D904E0FEF7C1FB401B0228B7D90C
:10520000032003B0F0BDFEF7B9FB801B02287FF638
:105210002BAFF5E7FEF7B2FB401B02287FF65FAF2E
:10522000EEE7FEF7ABFB801B02287FF673AFE7E7E4
:1052300002F4407293423FF478AF2B6F134A01217E
:10524000C2F8401E23F440730021C2F8401E2B67B1
:105250002B6FD9077FF569AFFEF790FB41F28837D6
:1052600006462B6F9A073FF560AFFEF787FB801B62
:10527000B842F6D9C4E7916821F4F81165E7064B06
:1052800094F82C20C3F8E02169E700BF00004742F2
:1052900000380240007000400010474238B50D460B
:1052A0000446C8B190F82C3003F0FF021BB980F817
:1052B0002D20FCF717FF022384F82C30211D2068D5
:1052C00000F00EFD62682068294600F03FFD0123D2
:1052D00084F82C30002038BD0120FCE770B590F830
:1052E0002C30022B05460E46D8B212D000F0FB043B
:1052F000012C0FD1022385F82C30286800F05CFDCA
:105300003368022B06BF052385F82C3085F82C4026
:10531000002070BD0120FCE738B590F82C30022B3E
:105320000446D8B20DD094F82C30012BDDB209D14F
:105330000223206884F82C3000F062FD84F82C50A1
:10534000002038BD0120FCE72DE9F3471F468946C0
:1053500090460446FEF712FB0A9D3D442D1AFEF7C7
:105360000DFB264B1E68C6F3CB366E438246019674
:105370002268936839EA03030CBF012300234345E5
:1053800001D100202EE07B1CF3D0FEF7F7FAA0EB52
:105390000A00A84229D323685A6822F0E0025A6022
:1053A0006268B2F5827F0AD1A268B2F5004F02D0DE
:1053B000B2F5806F03D11A6822F040021A60A26A27
:1053C000B2F5005F07D11A6822F400521A601A6819
:1053D00042F400521A60012384F85130002384F80B
:1053E0005030032002B0BDE8F087019A019B002AEB
:1053F00003F1FF33019308BF1546B9E7740000209D
:10540000F0B585B00B4600920E46174602210122E8
:105410000446FFF799FF054628B1636D43F020036A
:105420006365032515E0124B1868124BB0FBF3F0CF
:105430004FF47A73584363680390B3F5827F0BD1BE
:10544000009733462A4680212046FFF77DFF00283B
:10545000E3D1284605B0F0BD039B002BF9D0039B98
:10546000013B039323689B681B06F5D4F1E700BF5B
:105470007400002000366E0137B50B464168B1F567
:10548000827F044608D0009201210022FFF75CFFD2
:10549000D0B9002003B030BD8168B1F5004F02D013
:1054A000B1F5806F07D125682868B1F5806F20F0CD
:1054B0004000286004D00092802100222046E5E7C9
:1054C000009201210022F9E7636D43F02003636538
:1054D0000320DFE710B50446002855D0436A002BAF
:1054E0004ED14268B2F5827F00D0C3610023A3622F
:1054F00094F8513003F0FF0223B984F8502020467D
:10550000FCF7BAFD2168A068A269022384F8513033
:105510000B6823F040030B60636800F4044003F45D
:1055200082730343E06800F400600343206900F0E5
:1055300002000343606900F00100034302F40070BD
:105540000343E06900F038000343206A00F0800064
:105550000343A06A00F4005003430B60636A120C1B
:1055600003F0100302F004021A434A60CB6923F4EB
:105570000063CB6100200123606584F8513010BDC9
:105580000023C0E90433B1E70120F8E72DE9F74330
:1055900004461F460D469046FEF7F0F994F8513048
:1055A000012B8146D8B240F09F80002D74D0B8F115
:1055B000000F71D094F85030012B00F09580032338
:1055C00084F8513000236365C4E91033A4F83680B1
:1055D000A363A387E387A368266884F85000B3F524
:1055E000004F2563A4F8348007D1336823F04003CB
:1055F0003360336843F4804333603368E2685B06AA
:105600005EBF336843F040033360B2F5006F6368F8
:1056100045D113B1B8F1010F07D135F8023BF36062
:105620002563E38E013B9BB2E386E38E9BB2D3B945
:105630004A4639462046FFF7E3FE002851D1A368C9
:1056400033B901932368DA6801929B680193019B47
:10565000012384F85130606D0023C01A84F8503063
:1056600018BF012018E022689368980705D5236BBE
:1056700033F8021BD1602363D3E7FEF77FF9A0EB79
:105680000900B842D1D3791CCFD0012384F851301E
:10569000002384F85030032003B0BDE8F08313B139
:1056A000B8F1010F08D12B783373236B01332363D7
:1056B000E38E013B9BB2E386E38E9BB2002BB7D017
:1056C00023689A68920703D5226B12781A73ECE765
:1056D000FEF754F9A0EB0900B842EDD37B1CEBD0E8
:1056E000D3E720236365AAE70220D5E72DE9F74336
:1056F00004460D4691461E46DDF82880FEF73EF929
:1057000094F851306268012B0746D9B20AD0B2F53D
:10571000827F40F0E580A368002B40F0E1800429FF
:1057200040F0DE80002D4BD0B9F1000F48D0002EA4
:1057300046D094F85030012B00F0D280012384F839
:10574000503094F85130C4F83890042B1CBF052316
:1057500084F8513000236365C4E910332368E68779
:10576000E6861968A687490658BF1968256358BF99
:1057700041F04001A68658BF1960E168B1F5006F9D
:1057800055D10AB1012E07D135F8022BDA60E38E2C
:105790002563013B9BB2E3860125E38E9BB28BB967
:1057A000E38F9BB273B93A4641462046FFF728FE85
:1057B000002800F0818020236365002384F85030A6
:1057C000012031E021688B689A070DD5E38E9BB2EA
:1057D00053B145B1236B33F8022BCA602363E38EC8
:1057E000013B9BB2E38600258A6812F001020CD0CF
:1057F000E38F9BB24BB1A36BC96823F8021BA36371
:10580000E38F013B9BB2E3871546FEF7B7F8C01B59
:105810004045C2D3B8F1FF3FBFD0012384F85130D7
:10582000002384F85030032003B0BDE8F0830AB1B0
:10583000012E08D12A781A73236B01332363E38E78
:10584000013B9BB2E38601252DE0226893689B070C
:105850000ED5E38E9BB25BB14DB1236B1B781373F6
:10586000236B01332363E38E013B9BB2E386002568
:105870002268916811F001010DD0E38F9BB253B102
:10588000A36BD2681A70A36B0133A363E38F013B50
:105890009BB2E3870D46FEF771F8C01B404502D36B
:1058A000B8F1FF3FB9D1E38E9BB2002BCDD1E38F8E
:1058B0009BB2002BC9D176E7A36833B90193236863
:1058C000DA6801929B680193019B012384F85130AF
:1058D000606D0023C01A84F8503018BF0120A3E780
:1058E0000220A1E72DE9F7431E4690F85130012B25
:1058F000044689461746DDB204D00225284603B087
:10590000BDE8F0834368B3F5827F0BD183684BB960
:10591000042380F85130134600960A46FFF7E6FE4E
:105920000546EBE7FEF72AF88046B9F1000FE5D00F
:10593000002FE3D094F85030012BDED0A268C4F8D9
:1059400038900123002584F85030B2F5004F4FF015
:10595000040384F85130C4E9105565652368E7876E
:10596000A7872563A586E58607D11A6822F040023D
:105970001A601A6822F480421A601A6855065EBFDF
:105980001A6842F040021A60E368F3B1E38F9BB2F9
:10599000FBB123689A68D2073CD5DA68A36B23F879
:1059A000022BA363E38F013B9BB2E387EEE72368FF
:1059B0009A68D0071ED5A26B1B7B1370A36B0133B3
:1059C000A363E38F013B9BB2E387E38F9BB2002B82
:1059D000EDD1424631462046FFF74EFD18BB01236C
:1059E00084F85130656D0023ED1A84F8503018BFEB
:1059F000012583E7FDF7C2FFA0EB0800B042E4D326
:105A0000711CE2D0012384F85130002384F8503017
:105A1000032573E7FDF7B2FFA0EB0800B042B5D352
:105A2000731CB3D0EEE720236365D8E7704700000E
:105A300090F83D30012B30D1022380F83D300368CF
:105A4000DA6842F00102DA60154A93421AD0B3F1E3
:105A5000804F17D0A2F57C42934213D002F58062AA
:105A600093420FD002F5806293420BD002F5784248
:105A7000934207D002F57052934203D0A2F59432BC
:105A8000934204D19A6802F00702062A03D01A68EA
:105A900042F001021A60002070470120704700BFE9
:105AA000000001407047704770477047036870B549
:105AB000DD681E69B10704460DD5AA070BD56FF046
:105AC00002021A61012202779B699B0769D0FFF7E6
:105AD000EAFF00232377710710D56A070ED52368E4
