:020000040800F2
:10000000000003205D06000885160008871600081A
:10001000891600088B1600088D16000800000000E5
:10002000000000000000000000000000F17D00085A
:100030008F16000800000000817E0008A1760008ED
:10004000AD060008AD060008AD060008AD060008C4
:10005000AD060008AD060008AD060008AD060008B4
:10006000AD060008AD060008AD060008AD060008A4
:10007000AD060008AD060008AD060008AD06000894
:10008000AD060008AD060008AD060008AD06000884
:10009000AD060008AD060008AD060008AD06000874
:1000A000AD060008AD060008AD060008AD06000864
:1000B000AD060008AD060008AD060008AD06000854
:1000C000AD060008AD060008AD060008AD06000844
:1000D000AD060008AD060008AD060008AD06000834
:1000E000AD060008AD060008AD060008AD06000824
:1000F000AD060008AD060008AD060008AD06000814
:10010000AD060008AD060008AD060008AD06000803
:10011000AD060008AD06000891160008AD060008FF
:10012000AD060008AD060008AD060008AD060008E3
:10013000AD060008AD060008AD060008AD060008D3
:10014000AD060008AD060008AD060008AD060008C3
:10015000AD060008AD060008AD060008AD060008B3
:10016000AD060008AD060008AD060008AD060008A3
:10017000AD060008AD060008AD060008000000004E
:10018000AD060008AD060008AD060008AD06000883
:10019000AD060008AD060008AD060008AD06000873
:0C01A0009D160008AD060008A916000816
:1001B00010B5054C237833B9044B13B10448AFF3A1
:1001C00000800123237010BD800300200000000088
:1001D000803F020808B5034B1BB103490348AFF346
:1001E000008008BD0000000084030020803F02085A
:1001F00001F0FF01102A2BDB10F0070F08D010F8D8
:10020000013B013A8B422DD010F0070F42B3F6D1DB
:10021000F0B441EA012141EA014122F007047FF0F4
:1002200000070023F0E80256083C85EA010586EA4B
:10023000010685FA47F5A3FA87F586FA47F6A5FA87
:1002400087F68EB9EED1F0BC01F0FF0102F0070293
:1002500032B110F8013B013A83EA010313B1F8D13E
:100260000020704701387047002D06BF354603381F
:10027000073815F0010F07D1013015F4807F02BF58
:10028000013015F4C03F0130F0BC0138704700BFA9
:100290007BB972B90029BEBF00204FF0004106E0D3
:1002A00008BF00281CBF6FF000414FF0FF3000F086
:1002B000D3B9ADF1080C6DE904CE002909DB002BA0
:1002C0001ADB00F04DF8DDF804E0DDE9022304B0AC
:1002D0007047404261EB4101002B1BDB00F040F80E
:1002E000DDF804E0DDE9022304B0404261EB4101A6
:1002F000524263EB43037047524263EB430300F007
:100300002FF8DDF804E0DDE9022304B0404261EBA0
:1003100041017047524263EB430300F021F8DDF8DE
:1003200004E0DDE9022304B0524263EB430370476B
:1003300053B94AB9002908BF00281CBF4FF0FF314C
:100340004FF0FF3000F088B9ADF1080C6DE904CE34
:1003500000F006F8DDF804E0DDE9022304B07047A0
:100360002DE9F047089D8E4604468846002B4AD169
:100370008A42174662D9B2FA82F64EB1C6F120031C
:1003800001FA06F820FA03F3B74043EA0808B4403C
:100390004FEA174E1FFA87FCB8FBFEF1230C0EFB49
:1003A000118843EA084301FB0CF29A4209D9FB1871
:1003B00001F1FF3080F0EA809A4240F2E780023992
:1003C0003B449A1AA3B2B2FBFEF00EFB102243EAA2
:1003D000024300FB0CFC9C4509D9FB1800F1FF32DD
:1003E00080F0D6809C4540F2D3803B44023840EAFE
:1003F0000140A3EB0C0300211DB1F3400022C5E92D
:100400000032BDE8F0878B4205D90DB1C5E9000186
:1004100000210846F5E7B3FA83F1002946D1734578
:1004200002D3824200F20581841A6EEB030201209E
:100430009046002DE5D0C5E90048E2E7002A00F02B
:100440009080B2FA82F6002E40F0A4808A1A030C43
:100450004FEA174E80B2BCB20121B2FBFEFC0EFB8C
:100460001C2243EA024304FB0CF29A4207D9FB1810
:100470000CF1FF3802D29A4200F2E080C4469B1A87
:10048000B3FBFEF20EFB123340EA034302FB04F41B
:100490009C4207D9FB1802F1FF3002D29C4200F2C5
:1004A000CA8002461B1B42EA0C40A5E7C1F12006A8
:1004B0008B4022FA06F71F430EFA01F420FA06F3E6
:1004C0002EFA06FE4FEA1749234300FA01F81FFAF5
:1004D00087FCBEFBF9F01C0C09FB10EE44EA0E444D
:1004E00000FB0CFEA64502FA01F209D93C1900F105
:1004F000FF3A80F09C80A64540F2998002383C4447
:10050000A4EB0E041FFA83FEB4FBF9F309FB1344BA
:100510004EEA044403FB0CFCA44508D93C1903F142
:10052000FF3E80F08280A4457FD9023B3C4443EAF1
:100530000040A4EB0C04A0FB02EC64457346E146CA
:1005400062D35FD05DB1B8EB030264EB090404FA37
:1005500006F622FA01F31E43CC40C5E900640021EF
:100560004FE7B1FBF2FC010C41EA0E4180B240EAD8
:1005700001423B4638463C46B846BE462026B1FBC3
:10058000F7F1A2EB080241EA0C4166E7014618E7E1
:1005900010462CE7C6F120022EFA02F3B740B14014
:1005A00020FA02F24FEA174E0A43B3FBFEF8BCB240
:1005B0000EFB1833110C41EA034108FB04F9B0406B
:1005C00089454FEA104380B23ED9791808F1FF3CC3
:1005D00001D289451FD8A1EB0901B1FBFEF909FB46
:1005E00004F80EFB191192B242EA0142424529D2A7
:1005F000BA1809F1FF31C4D24245C2D2A9F10201B1
:100600003A44BEE7F0459DD2BEEB02036CEB070C0B
:100610000138E14696E7A7EB09094944A8F1020C25
:10062000B1FBFEF909FB04F8DBE773467FE75046B0
:1006300066E70846FDE63B44023A33E7ACF1020CBC
:100640003B441CE749469CE7A1EB0901C446B1FBCA
:10065000FEF909FB04F8C4E7704700BFDFF834D0A7
:10066000002103E00C4B5B58435004310B480C4B0A
:1006700042189A42F6D30B4A02E0002342F8043BA8
:10068000094B9A42F9D304F08DFD22F00BFF00F0E4
:10069000E3F9704700000320ECF20208000000209C
:1006A0006401002080030020185A0120FEE70000AA
:1006B0007FB501238DF817106421CDE901310DF1CB
:1006C0001701024600910348E62105F0B5FA07B08C
:1006D0005DF804FBF40400200146EF20FFF7E8BFBB
:1006E00070B5044600EB410661782078FFF7E0FF23
:1006F000054620B90234B442F6D1FFF7EDFF284693
:1007000070BD00001FB5024601236420CDE9013011
:1007100000910348E62105F01FFB05B05DF804FBDE
:10072000F404002013B5002304460A208DF8073096
:1007300004F072FD0DF107014320FFF7E3FF9DF880
:100740000730102B06D1C82004F066FD0524204692
:1007500002B010BD202BFAD1C82004F05DFD0624A4
:10076000F5E7000001481D21FFF7BABFD83F020896
:1007700013B5012004F050FD0020FFF7ADFF002469
:100780000020FFF7A9FF20468DF806408DF80740AE
:10079000FFF7A2FF0DF106012046FFF7B3FF0DF1B1
:1007A00007010120FFF7AEFF9DF80630202B0CD18A
:1007B0009DF80730762B08D106483721FFF790FFC8
:1007C000044618B9FFF7CEFF00E00124204602B02E
:1007D00010BD00BF1240020807B500230DF106014D
:1007E00043208DF806308DF80730FFF78BFF9DF81A
:1007F0000630102B2AD00BD8013BDAB2072A0DD8CD
:10080000072B0BD8DFE803F01E200A1C0A0A0A1681
:10081000402B25D0802B25D0202B1CD044200DF13F
:100820000701FFF76FFF9DF80730012B0CBF092070
:10083000002002E00420FFF775FF03B05DF804FB21
:100840000320F8E70120F6E70220F4E7C82004F0CF
:10085000E3FC0520F1E7C82004F0DEFC0620ECE70D
:100860000720EAE70820E8E707B5064BADF80600E1
:100870001B68054801220DF1060106F0CFFA03B00E
:100880005DF804FB04000020F403002073B5274D3D
:10089000274E284C4F23042128468DF8073004F0BA
:1008A0000FFF012808BF4C234FF00801284608BF5E
:1008B0008DF8073004F004FF012808BF52234FF4DD
:1008C0008051304608BF8DF8073004F0F9FE01284A
:1008D00008BF44234FF40051304608BF8DF807305D
:1008E00004F0EEFE012808BF4323206808BF8DF8FE
:1008F000073007F0D3F80246A0B99DF80730433B14
:10090000DBB20F2B0ED848F2032121FA03F3DB07E9
:1009100008D520680A230DF1070107F05EF8502082
:1009200006F06CFF0A2006F069FFB3E700180240EA
:1009300000040240A803002037B51F4C4F25FFF7E5
:100940004BFF8DF8075058B10138072808D8DFE869
:1009500000F0272925042B2D2F3152238DF8073045
:100960009DF80730433BDBB20F2B13D848F203222C
:1009700022FA03F3DB070DD5206807F08FF8024653
:1009800040B920680A230DF1070107F026F850202E
:1009900006F034FF0A2006F031FFD0E74C23DDE7F4
:1009A0005523DBE74423D9E74623D7E74223D5E79E
:1009B0004323D3E74123D1E7A803002030B595B006
:1009C000102200210AA822F0C4FC1422002103A84E
:1009D00022F0BFFC00241E4B01941A6C42F080529E
:1009E0001A641B6C03F080530193019B194B029412
:1009F0001A6842F440421A601B6803F440430293B1
:100A00000122029B4FF48033CDE9082302254FF4E5
:100A100080030821CDE90E534FF4B473CDE91013D0
:100A200008A804231393129505F0B0FC05F074FC9C
:100A30000F23CDE903354FF4A0504FF48053CDE997
:100A40000603052103A8059405F07CFE15B030BD12
:100A5000003802400070004080B59AB004F0B0FB4E
:100A6000FFF7ACFF142200210DA822F072FC002435
:100A7000C64B00941A6BC648DFF8548342F010024C
:100A80001A631A6B02F010020092009A01941A6B1A
:100A900042F020021A631A6B02F020020192019ABE
:100AA00002941A6B42F080021A631A6B02F0800201
:100AB0000292029A03941A6B42F004021A631A6BB0
:100AC00002F004020392039A04941A6B42F00102AA
:100AD0001A631A6B02F001020492049A05941A6BCD
:100AE00042F002021A631A6B02F002020592059AA2
:100AF00006941A6B42F040021A631A6B02F040022D
:100B00000692069A07941A6B42F008021A631B6B4E
:100B100003F00803224607933C21079B04F0D6FD0F
:100B20009C480122022104F0D1FD2246994804216B
:100B300004F0CCFD224698484FF4405104F0C6FD25
:100B4000224696484FF4C04104F0C0FD01263C23E4
:100B5000CDE90D368E480F9403230DA9022710937B
:100B600004F0CAFC8B480DA9CDE90D76CDE90F4400
:100B700004F0C2FC042387480DA9CDE90D36CDE968
:100B80000F474FF4405504F0B7FC85480F940DA96A
:100B9000CDE90D5404F0B0FC7F480DA9CDE90D5608
:100BA000CDE90F4704F0A8FC0C237C480F940DA955
:100BB000CDE90D3404F0A0FC4FF4C0437748794DE3
:100BC0000DA9CDE90D36CDE90F4404F095FC0DA932
:100BD00075480F94CDE90D6404F08EFC7348744B96
:100BE000036004F07FFBDFF8ECE1724B2C62C5E997
:100BF00000E328464FF48043C5E90434C5E90244C4
:100C0000C5E9064404F070FF1021284605F0B4F948
:100C100021462846684D05F0CEF94FF48273C5E9A8
:100C200000834FF400791823C5E9069328460A2368
:100C3000C5E90244C5E90444C5E90844AC62EB6275
:100C400006F090F88F232246394652488DF824301A
:100C50008DF8344004F03AFD32464FF47A7309A916
:100C6000284606F0DBF84FF47A7332460DA9284681
:100C700006F080FA324639464648504D04F026FDCB
:100C80009DF83430D32B04BF4D4B1E704D4B0126C5
:100C9000C5E90036102240230024C5E904234FF49F
:100CA000C073C5E906344FF40063C5E908344FF456
:100CB000005302274FF00409AB624FF0030A0723E9
:100CC0000DA92846CDE90D73CDE90F934FF0080823
:100CD000C5E90249CDE911A7139705F027FF4FF6A3
:100CE000FF7209A9284608940C94CDE90A86099652
:100CF00005F03CFF304604F08FFA4FF6FF7209A969
:100D00002846CDE90B64CDE9097805F02FFF4FF6B1
:100D1000FF7209A92846CDE90B94CDE909A805F091
:100D200025FF4FF40C730893089B0C934FF6FF724A
:100D300009A92846CDE909980B9605F017FF40F25E
:100D40006A51284605F030FF342221460DEB02009F
:100D500022F0FFFA1C4D1D4B2C61C5E9003409231C
:100D6000C5E905361D23C5E9073A40F20D1140F2E9
:100D70004313C5E9091340F2171040F24713C5E9C0
:100D80000B032846C5E90244AC8625E00038024042
:100D90000010024000080240000C0240001802400F
:100DA00000040240F40400200000024088050020F6
:100DB00000300240A0860100F4030020C0030020A0
:100DC000AC030020400100A04C040020006801405A
:100DD00000500140005C004085F8364005F086F97F
:100DE000FF214FF4806CCDE91214F0220521CDE9EA
:100DF00014C14FF4A0730DA9CDE90E24CDE916421C
:100E000028462246304D0D94CDE910371893ADF8A1
:100E100064408DF8664005F034FA2C4B2B601B685B
:100E200098472B682A4DDB6898472A4B2846C5E926
:100E30000034C5E90274C5E90A47C5E90C4404F069
:100E400061FA3146284604F013FB00F086FC00F0FE
:100E500083FCFFF78DFC044618B1642004F0DCF934
:100E6000FBE706F02BFC1C4A3146404606F07AFDB3
:100E70001A4B1B4A18603146404606F073FD194B69
:100E8000194A18602146194806F044FC184B194AC3
:100E900018602146184806F03DFC184B184A1860A7
:100EA0002146184806F036FC174B186006F088FCFF
:100EB000164A1748214606F02DFC164B186006F01E
:100EC0007FFC06F00DFCFEE79C03002014000020D0
:100ED0004805002000B00240D44D0208A8030020BD
:100EE000BC4D0208A4030020584E0208011100085E
:100EF000BC030020344E020869170008B803002024
:100F0000104E02088D080008B4030020EC4D0208C2
:100F100039090008B0030020704770477FB5094BBE
:100F20008DF817201B6802930DF117020123009220
:100F300001930A460146044804F07EFE07B05DF8BE
:100F400004FB00BF08000020F40400207FB500234C
:100F50008DF81730084B1B6802930A4601230DF1E8
:100F60001701009101930146044804F0F5FE9DF835
:100F7000170007B05DF804FB08000020F40400200F
:100F80001FB5084C24680092CDE901340A460123BC
:100F90000146054804F0E0FE003818BF012004B007
:100FA00010BD00BF08000020F404002004F034B994
:100FB00010B5064C00222046042104F087FB204691
:100FC0000122BDE81040042104F080BB000802406B
:100FD00038B50B4D044601220A484FF4005104F085
:100FE00075FB00220421284604F070FB2046FFF721
:100FF0003BFC28460122BDE83840042104F066BBD2
:1010000000080240000C024038B50B4D0446002297
:101010000A484FF4005104F059FB002204212846ED
:1010200004F054FB2046FFF71FFC28460122BDE8D0
:101030003840042104F04ABB00080240000C024082
:10104000F7B5144E144F05460C46304600220421D5
:1010500004F03CFB00224FF40051384604F036FB0C
:101060002846FFF701FC0D4B0D481B68224601A9DD
:1010700006F080F8384601224FF40051019C04F03C
:1010800025FB30460122042104F020FB204603B05A
:10109000F0BD00BF00080240000C02400400002028
:1010A000F403002004F0B8B810B5124B1B7813B14C
:1010B000012B14D010BD104C206806F06FFB0328E4
:1010C00002D1206806F08BFB0C4C206806F066FB12
:1010D0000328EFD02068BDE8104006F071BB074C34
:1010E000206806F05BFB032802D1206806F077FB3E
:1010F000014CEAE7A0030020B4030020B003002065
:1011000073B5154C154E164D206806F0C7FCF8B1A6
:1011100000231A4620680DF1070106F08FFC9DF8A8
:10112000073023B94FF40051284604F0D4FA9DF853
:101130000730012B04D14FF48041284604F0CBFA4C
:101140009DF80730003B18BF01233370FFF7ACFF59
:10115000012006F053FBD7E7A4030020A0030020E2
:10116000001802400268034B9A4201D104F042B8D1
:10117000704700BF001000407047000082B00E4B67
:1011800000220092596C41F480415964596C01F479
:101190008041009100990192196C41F080511964CD
:1011A0001B6C03F080530193019B0F216FF0010032
:1011B00002B004F057B800BF003802400268094B83
:1011C0009A4282B00BD100230193074B1A6B42F471
:1011D00080521A631B6B03F480530193019B02B08E
:1011E000704700BF003002400038024007B50F4B87
:1011F00002689A4216D10022A3F5F0430192196BBE
:1012000041F4000119631B6B03F4000301930521F2
:101210005A20019B04F026F85A2003B05DF804EB35
:1012200004F052B803B05DF804FB00BF00B0024008
:101230002DE9F043044689B01422002103A822F0CE
:1012400088F82268244B9A4243D1244C2448002534
:101250000095236B43F004032363236B03F0040323
:101260000093009B0195236B43F001032363236BE1
:1012700003F001030193019B4FF012094FF4007337
:101280004FF001080327042603A9CDE90339CDE96E
:101290000587079604F030F94FF4807311480796DC
:1012A00003A9CDE90339CDE9058704F025F90295B5
:1012B000236C43F400032364236C03F400030293C0
:1012C000029B236A43F400032362236A23F400038E
:1012D000236209B0BDE8F083005C004000380240A2
:1012E0000008024000000240F0B599B00446142204
:1012F000002107A822F02DF830220DEB020000217A
:1013000022F027F822685E4B9A4240F0B78008230B
:101310000C93C0231093042312930CA84FF40033B2
:10132000159305F0D7FA08B1FFF726FF554B56483D
:10133000002400945A6C42F080625A645A6C02F0A5
:1013400080620092009A01941A6B42F020021A63A4
:101350001A6B02F020020192019A02941A6B42F079
:1013600001021A631A6B02F001020292029A0394BC
:101370001A6B42F002021A631A6B02F00202039225
:10138000039A04941A6B42F040021A631A6B02F03B
:1013900040020492049A05941A6B42F004021A6304
:1013A0001A6B02F004020592059A06941A6B42F039
:1013B00008021A631B6B03F00803069302250E262E
:1013C000069B0B964FF4806307A9CDE90735CDE95D
:1013D000094504F091F841F658032C480B9607A9EB
:1013E000CDE907350927CDE9094504F085F8032340
:1013F00027480B9707A9CDE90735CDE9094504F042
:101400007BF84FF4706322480B9607A9CDE90735A6
:10141000CDE9094504F070F84FF40C631D480B96B4
:1014200007A9CDE90735CDE9094504F065F8C023E2
:1014300019480B9607A9CDE90735CDE9094504F010
:101440005BF8082315480B9607A9CDE90735CDE9C8
:10145000094504F051F84FF4A0530E480B9707A923
:10146000CDE90735CDE9094504F046F85820224674
:10147000052103F0F7FE582003F026FF19B0F0BD58
:1014800000680140003802400014024000000240A1
:10149000000402400018024000080240000C024014
:1014A00010B5044688B01422002103A821F051FF92
:1014B0002268144B9A4223D103F56843002101911D
:1014C0005A6C114842F480125A645A6C02F4801229
:1014D0000192019A02911A6B42F020021A631B6B6F
:1014E00003F020030293029B4FF460720223032156
:1014F000CDE903230523CDE9061303A903F0FCFF7F
:1015000008B010BD00500140001402402DE9F04128
:1015100086B0002303932B4B1C68002C4FD14FF057
:101520000108C3F80080284B00949A6B274842EAD0
:1015300008029A639B6B03EA0803009302270326C1
:101540000C25009B01A94FF63F03CDE90137CDE9FA
:10155000046503F0D1FF1E48059501A9CDE9018777
:10156000CDE9034603F0C8FF48F233131948059547
:1015700001A9CDE90137CDE9034603F0BDFF4FF6E0
:1015800083731548059501A9CDE90137CDE90346D7
:1015900003F0B2FF4CF203731048059501A9CDE9A1
:1015A0000137CDE9034603F0A7FF60230C480595FA
:1015B00001A9CDE90137CDE9034603F09DFF06B04F
:1015C000BDE8F08190050020003802400014024080
:1015D000000802400018024000100240000C0240C7
:1015E0000004024070B588B000230293204B1A6CAF
:1015F00042F010021A641B6C03F0100302930546BC
:1016000001A903A8029B05F047F9069B4BBB05F017
:1016100033F9184E184B336040F2E733F360174B41
:10162000B0FBF3F3013B7360304600233361B360DA
:10163000B36105F06FFF044680B9304605F040FE07
:10164000044658B9362003F03FFE0F2D0DD8224630
:101650002946362003F006FE094B1D60204608B0DF
:1016600070BD05F009F94000D3E70124F6E700BF9B
:1016700000380240940500200010004040420F0056
:101680007C0000207047FEE7FEE7FEE7FEE77047BC
:10169000014805F053BE00BF94050020014804F046
:1016A00093BD00BF4C040020014803F057BE00BFAB
:1016B000480500200120704708B521F0EDFE1623F3
:1016C00003604FF0FF3008BD08B521F0E5FE16239A
:1016D0000360FEE770B50D4614460E46731B9C4230
:1016E00001DC204670BDAFF3008006F8010BF5E782
:1016F00070B50D4614460E46731B9C4201DC204615
:1017000070BD16F8010BAFF30080F5E74FF0FF3026
:1017100070474FF400534B60002070470120704722
:10172000002070470A4A116808B5034609B90949FB
:1017300011601068694603448B4206D921F0ACFE63
:101740000C2303604FF0FF3008BD1360FCE700BFBF
:10175000DC050020185A0120704708B500F0BEFDD6
:10176000BDE8084000F040BD00F0BABD704710B5BC
:101770000421044620F0A9FC204610BD38B50C4BCE
:101780000C4C18800C4B822019806368984740F6F7
:10179000110398420AD1094D23682C608220984792
:1017A0002B688220DB689847002038BD0120FCE7C9
:1017B000EA0500204C000020E8050020EC05002090
:1017C0004FF4A071F020FFF7D9BF0000F7B5394DF5
:1017D0002B6804461B6982209847208000284ED041
:1017E0002B680DF106025B6901A982209847324BF4
:1017F0001B78002B4BD0BDF8062040F674639A424C
:101800003FD9ADF80630BDF806209B1A9BB20A2BD3
:1018100042D90B22B3FBF2F3284A1288934201D932
:10182000013A93B2BDF80420254840F6B8318A4207
:1018300034D8C2F571620E32016892B20F25B2FB44
:10184000F5F2204D2D88AA4284BF05F1FF35AAB2DA
:101850008A4215468EB22AD9921B91B21A4E376827
:10186000BB42BAB28CBF9A1AD21A92B2114405295D
:10187000C4BF05603360036863803368A38003B02E
:10188000F0BDB32A9CBFB422ADF80620BBE7BDF87B
:101890000630A3F5B473B9E70023C3E7C2F56D6260
:1018A000083292B20E2A0168C8D800252A46891A41
:1018B00089B2D3E7EC050020AC030020E805002046
:1018C000E4050020EA050020E005002037B5684661
:1018D0000D461446FFF77AFFBDF8000030B1BDF8A1
:1018E00002302B60BDF804302360012003B030BD0E
:1018F000032821D8DFE800F0020B12190F4B1A68F9
:10190000B2FA82F2520904210D4803F0DFBE0B4BFC
:101910005A68B2FA82F252090821F5E7074B9A6831
:10192000B2FA82F252091021EEE7044BDA68B2FAF9
:1019300082F252092021E7E7704700BFF00500203E
:1019400000100240032821D8DFE800F0020B121932
:101950000F4B1A68003A18BF012204210D4803F00A
:10196000B5BE0B4B5A68003A18BF01220821F5E7B3
:10197000074B9A68003A18BF01221021EEE7044B8A
:10198000DA68003A18BF01222021E7E7704700BF5C
:10199000F00500200010024003280DD8DFE800F019
:1019A0000206080A0421054803F095BE0821FAE75B
:1019B0001021F8E72021F6E7704700BF0010024031
:1019C00008B5032811D8DFE800F0020A0C0E042144
:1019D000074803F075FE431E5842584108BD0821D0
:1019E000F6E71021F4E72021F2E70020F3E700BF3B
:1019F0000010024070B5084D00240126E0B2FFF748
:101A0000DFFF18B12B68012B18BF2E600134052CA5
:101A100005F10405F2D170BDF0050020012380F826
:101A2000781080F8793070477047002070470000C8
:101A3000034B4164003918BF01211970704700BF82
:101A4000D74C0120704700207047836B0BB10846CC
:101A5000184770474FF6FF707047406803689B69EE
:101A600018477047704770477047704710B5044675
:101A700000F04CFD23680349D3F890302046BDE8C0
:101A800010401847000000D008B503680446D3F89A
:101A90008430984723682046DB6F984700F0ECF8C5
:101AA000236820465B6F98472920FFF7ADFA00F0C6
:101AB000E3F8236820465B6F9847F8E710B50446C3
:101AC00009F0A6F823682046D3F8BC30BDE81040E2
:101AD000184700F0FFBC00F003BD00F035BD00F07A
:101AE000D5BC00F045BD00F04DBD00F0D9BC08F0FC
:101AF000BDBA10B58421044620F0E7FA204610BD97
:101B000010B590F8341090F878400C4B8C421A784D
:101B100009D03AB90A4A0B491488088810800C8009
:101B200001221A7010BD002AFCD0054A054914880C
:101B3000088810800C800022F3E700BFD04C012001
:101B4000CC4C0120CE4C012070B50D46194635B95C
:101B5000094B0A4A0A4840F2FF2121F0F3F9C0E993
:101B60000F52084B003A18BF01221A700368BDE8F3
:101B70007040D3F890301847B5400208ED40020895
:101B80003B410208D64C012008B5094B1B888B420B
:101B900003D8084B1B88934205D9074B074A0848CE
:101BA000A32121F0CFF9074B1980074B1A8008BDFC
:101BB000CC4C0120CE4C012080410208E3410208B8
:101BC0003B410208D24C0120D44C0120034690F83E
:101BD0007A0018B1586803681B68184770470000FE
:101BE000012108B50022084605F014FE0A4B1860D2
:101BF00028B90A4B0A4A28210A4821F0A3F90022F1
:101C00000421012005F0AEFE074B186018B9074B00
:101C1000034A2C21F0E708BD0406002026420208F2
:101C20006F4202089E42020800060020EB420208B2
:101C3000024B4FF0FF31186805F036BE0406002055
:101C4000014B186805F05CBE04060020024B002121
:101C5000186805F029BE00BF04060020FFF7F0BF9A
:101C600003480449006800231A4605F0B6BE00BFC9
:101C7000000600200C00002013B5084C00231A4673
:101C800001A9206805F0DAFE20684FF0FF3300223A
:101C900001A905F0D3FE02B010BD00BF0006002070
:101CA00003685B6C18470120704703689B6A1847FC
:101CB000FEE740F2EF307047054B0360054B4FF0F5
:101CC0008062C3F88820BFF34F8FBFF36F8F7047D8
:101CD000884F020800E100E010B504464FF45A6155
:101CE000FFF7EAFF204620F0F0F9204610BD000083
:101CF00082B0002301930E4B1A6B42F400021A6368
:101D00001A6B02F400020192019A1A6942F400026D
:101D10001A611A6922F400021A61064B064A1A6116
:101D2000064A5A61064B4FF080629A6002B07047D3
:101D30000038024048050020911F0008B11C00082F
:101D400000E100E008B50A2809D8DFE800F0061035
:101D50000E080808081010101000022008BD054BDE
:101D6000054A0648902121F0EDF80020F6E7012011
:101D7000F4E700BF2D4302084843020893430208DA
:101D800038B50C46887FFFF7DDFFA58AE28A164B3F
:101D90002169586342EA05425A64628BD963521B37
:101DA0001A642568082D0ED19A611A615862207F45
:101DB0000E4A42EA0062DA61E2681A620C4A59612C
:101DC000D9601A6038BD0022D8611A61E1680A0A38
:101DD000480902F4784200F4FC600243C1F3C401F4
:101DE0000A439A63034AECE700B00240090001008D
:101DF000012302000123030008B50B280BD8DFE8FC
:101E000000F00612100A0A0A0A0808080808022048
:101E100008BD0520FCE7054B054A06486F2121F067
:101E200091F80020F4E70120F2E700BF2D430208FB
:101E3000DE430208934302082DE9F04191F81D802A
:101E40000C464046FFF7D8FFA77F05463846FFF708
:101E5000D3FF06463846FFF775FFA18A628B444BD5
:101E6000521A1A649A61228B521A1A61E28A5863D2
:101E700042EA01425A6421696268D963DA602068E3
:101E8000802828D0227F0FD8202867D0402865D00E
:101E900004281AD0364B45EA026545F40035B845AA
:101EA000DD6161D0334A44E0B0F5807F04D0B0F505
:101EB000007FEFD1304800E0304840EA0262DA614A
:101EC000E2681A625E62596132E045EA026242F4F7
:101ED0000032DA61F6E7A068021DDA62227F45EA85
:101EE000026545F40035DD615E625961017841B1FA
:101EF000012921D0224B234A23484FF48D7121F030
:101F000021F8DA69418822F47F42013922F0100277
:101F100042EA0122DA610121154BDA6942F020021E
:101F2000DA61DA699206FCD410229A600029B9D0ED
:101F3000164A1A60BDE8F081B2F1FF01DA69408803
:101F400022F47F4200F1FF3022F0100242EA002228
:101F500042F0100218BF0121DA61DDE745EA0262B2
:101F6000034B42F40032B4E742F20132E1E700BF32
:101F700000B0024001230100090002000A00020033
:101F80002844020842440208934302080123020045
:101F9000024B1B68586803685B691847D84C0120DE
:101FA00070B5044625460A4B0C3000266060267248
:101FB000667245F8203B6022294608F07FFF04F551
:101FC0005A63EE6024359D42FBD1204670BD00BFB0
:101FD000884F0208034B1A68D207FCD423229A6068
:101FE000704700BF00B002407047000030B50F4C92
:101FF0002568ED07FCD423250904A56041F0010103
:102000000225FF2B65636164E0630AD008496562BD
:1020100041EA0363E361074B22626061E060236091
:1020200030BDE561039BA363034BF8E700B00240BA
:1020300009000100010002000100030030B50E4C50
:102040002568ED07FCD423251204A56042F00102A7
:102050000225FF2B65636264E063E16008D01B0624
:1020600043F00213E361054B65626061236030BD9C
:10207000034BE3610123F9E700B0024001000200D5
:10208000020002FF30B50B4C2568ED07FCD4232578
:1020900012041B06A56043F40033022542F001023E
:1020A00065636264E063E160E361034B6562606104
:1020B000236030BD00B002400100020001207047E3
:1020C0000C2070470C2303FB0100083070470C23E1
:1020D00003FB0100083070470120704742F278701E
:1020E000704742F2787303FB01000830704742F2F8
:1020F000787303FB010008307047012070471020FF
:10210000704700EB01100830704700EB01100830F9
:102110007047084600F012BC10B5034B036004463C
:1021200007F0FBFC204610BD4050020810B50446E5
:10213000FFF7F2FF204614211FF0C7FF204610BD15
:1021400010B5034B0360044607F0E7FC204610BDC2
:102150000C50020810B50446FFF7F2FF20464FF47A
:102160001E511FF0B2FF204610BD000010B5034BFA
:102170000360044607F0D1FC204610BDD84F02088A
:1021800010B50446FFF7F2FF204618211FF09DFF0F
:10219000204610BD10B5094B0360044600F51E50E3
:1021A0002C30FFF7B9FF04F12C00FFF7C9FF04F151
:1021B0001400FFF7DBFF204610BD00BF745002087B
:1021C00008B50248FFF7E6FF08BD00BFE014002095
:1021D00010B50446FFF7DEFF204642F620111FF03F
:1021E00074FF204610BD00002DE9F34100F0C2FA53
:1021F000054600F0C3FA002401462346284622463D
:10220000009410F0CFFE284B284A1A60204601F0B7
:102210009BFB274D274B284A28489A6010F02AFE3E
:102220002B68BFF35B8FDB0737D428461FF04FFFC7
:1022300098B3234C234B236004F12C0808F51E5758
:1022400007F1180604F114006060C4F80880E76024
:10225000266107F063FC1C4B6361404607F05EFC9F
:102260001A4BE362384607F059FC04F50053184A4C
:10227000C3F8AC2704F51F5001F0EAFB224604F531
:102280001F51304601F0DAFB304600F057FB114891
:1022900020F076FE28461FF026FF0F4802B0BDE86A
:1022A000F041FFF7E3BB00BF3C4D01208C0600204E
:1022B000DC140020AC060020900600201000002056
:1022C000E014002074500208D84F02080C50020895
:1022D00040500208C1210008080600207047000095
:1022E0000148FFF7D1BB00BF0806002070B5264E9D
:1022F000264C274D274B23603046FFF751FE2846DA
:1023000015F056FF24480EF077FB244B2448DC6080
:1023100000224FF48071C3E9121222491A86C3E9E0
:102320001A12214983F85820C3E91E011F49C3F836
:1023300080101F491F480B60F021C3E90422C3E944
:102340000622C3E90822C3E90A22C3E90E22C3E92F
:102350001022C3E91422C3E917225A6683F87020B9
:102360005A67C3E9016501801348018013484FF49F
:10237000A07101801248018012490A70012283F87D
:102380003420114A1A6070BD38070020D81400208C
:10239000AC060020844E02089006002008060020AB
:1023A0000000010101000001000450001A001400A7
:1023B000D84C0120CC4C0120D24C0120CE4C012025
:1023C000D44C0120D04C01209C4E02080148FFF75C
:1023D00073BC00BF38070020002070478180704721
:1023E000C1807047018170474181704770477047D5
:1023F00070477047704710B4C4880368121B848804
:102400005B6D091B12B25DF8044B09B218474FF619
:10241000FF7383814FF0FF3303621368C361106061
:102420007047002070478B88838001207047704779
:1024300080F82610704790F82600704710B50022EB
:10244000B1F90840B1F90A10028042808480C1804D
:1024500010BD0022028042808280C28070470177D6
:10246000704780ED080A704780F82410704780F8A4
:102470002510704701207047983070478C307047A6
:10248000843070477047704770470000034B9022BC
:1024900083F85A2383F85823704700BF00E100E017
:1024A000094A0A49D3680A48C3F30A03013B9BB2AD
:1024B0000B801169C1F30A01013901801364536B68
:1024C00043F001035363704700680140023E00205F
:1024D000003E0020014BD3F8AC007047006801407B
:1024E000024B0122C3F8AC105A62704700680140E9
:1024F00010B52C2104461FF0E8FD204610BD10B594
:10250000BC2104461FF0E1FD204610BD70B5044615
:1025100007F001FE23689D6E0DF006F80146204687
:10252000A8472368054AD3F88C502046AC460023C0
:10253000BDE87040A2F51631604700BF00B004D07E
:1025400007F0D0BD07F0DABD07F096BD07F005BF74
:1025500090F8252012B103685B691847704790F81E
:1025600025201AB190F8242002B1186070470000AD
:10257000034B4FF080629A604FF080729A60704710
:1025800000E100E0084B4FF08062C3F88820BFF301
:102590004F8FBFF36F8F4FF08072C3F88820BFF367
:1025A0004F8FBFF36F8F704700E100E070B50023DD
:1025B000124E8380124B0360336893F8582005460F
:1025C0000AB1D86C00B998680368DB6A9847336829
:1025D000B0FA80F4D86C640930B10368DB6A9847BC
:1025E000002808BF44F001042CB9064B064A0748EE
:1025F0002C2120F0A7FC284670BD00BFD84C01203C
:102600008850020880440208DE4402081745020888
:1026100070B5254E3568BFF35B8F15F0010540D1CD
:1026200030461FF054FD00283BD0204C204B256144
:1026300004F13400C4E90035C4E90255E584A5621B
:10264000A5850EF0BEFC04F158000AF0EDF8194B18
:10265000A3652046184B40F8843BFFF7A7FF174BB4
:10266000C4F884302433C4F88C304FF4C803C4E970
:1026700028350023C4F8AC30C4F8B030C4F8B43006
:10268000C4F8B8300E480F4BC4F89050C4F89C50B2
:10269000C4F8A850C4F8983020F072FC30461FF0FF
:1026A00022FD024870BD00BF043E0020083E00200D
:1026B000B8590208A8500208205102086C590208B3
:1026C000892400084C59020838B5184C23685BB3BC
:1026D000174B184A1B6C11888B4216D1164B198860
:1026E00003F0FCFD236893F86A200025013283F88B
:1026F0006A2083F87C50FFF7B3FA206808F088FA64
:102700002846BDE83840FFF7F3B803F0E7FD24683A
:10271000236820461B6A9847012384F87C300020F8
:10272000BDE83840FFF70EB938BD00BFD84C0120D6
:1027300000680140023E0020003E0020704710B5B6
:10274000042104461FF0C1FC204610BD012908B534
:1027500006D0022908D059B901F042F9006808BD35
:1027600001F03EF94068FAE701F03AF98068F6E7CF
:102770000020F4E700487047785102080B207047AA
:1027800013B5002451B1036801948DF8034001AAE8
:102790009C680DF10303A04702B010BD0846FBE79B
:1027A000C0897047008A7047C0887047808870472A
:1027B000807A00F07F007047807AC009704700205F
:1027C000704700009FED010A704700BF0000000045
:1027D000704710B5082104461FF077FC204610BD55
:1027E0007047704700F598730868496803C37047DD
:1027F000704770474160704770477047064BC0F89C
:102800004C310023C0F8503100F5A273C0F84801E4
:10281000C0F84031704700BF3D2C0008012303720F
:102820007047704710B4C26841685410034601EB0A
:102830006200D20748BF0A599B685DF8044B48BF45
:10284000D35818470346406830B19A681AB9D86817
:1028500000F0010070470120704710B50C210446BC
:102860001FF033FC204610BD10B5102104461FF0A8
:102870002CFC204610BD10B54FF4AE7104461FF07D
:1028800024FC204610BD10B50CF04EFE0368BDE8D8
:102890001040DB6B184710B50446D0F8400158B122
:1028A0000368DB68984738B1D4F8400103689B6837
:1028B00098470023C4F8403110BD0000044B1B684A
:1028C00093F858200AB1D86C00B99868704700BFD7
:1028D000D84C0120F8B5174604460E460CF0E6FE2B
:1028E000124B1C60124B2360124B0025C4E951357A
:1028F000114BC4E953551868036801219B68C4E96A
:102900004F55C4E955769847284601F01DF8FFF762
:10291000D5FF17F0F6FAFFF7D1FF17F06DFBFFF7C1
:10292000CDFF17F075FB2046F8BD00BF2C4D0120F0
:10293000845202086C520208D84C0120064BC0F8A1
:102940004C310023C0F8503100F5A273C0F84801A3
:10295000C0F84031704700BF3D2C0008064BC0F85E
:102960004C310023C0F8503100F5A273C0F8480183
:10297000C0F84031704700BFF12A0008064BC0F88C
:102980004C310023C0F8503100F5A273C0F8480163
:10299000C0F84031704700BFA529000803685B6A92
:1029A000184700002DE9F14FD0E9556A0746B06895
:1029B00003681B6A984742F27773984205D8444BE4
:1029C000444AA321444820F0BDFA706803681B6A9A
:1029D00098470F2803D8414B3E4AA421F2E7F068FC
:1029E00003681B6A98470B2803D83D4B394AA52139
:1029F000E8E70CF099FDDFF8F09004300CF0B9FD39
:102A0000D9F8000010B10368DB689847D9F80000D6
:102A100010B103681B689847DFF8D080D8F8000031
:102A200010B103685B699847D7F83C0110B103689F
:102A30005B689847D8F8000010B103681B68984796
:102A4000D7F83C0110B103689B689847F0680021F3
:102A5000FFF7A4FF4FF0000B224BC0F804B0044670
:102A600080F808B00360B068036859465B6A98470D
:102A7000054601F0D5F87068036859465B6A9847C7
:102A80002946064600F0F6FF331DC7F83C61C9F839
:102A90000040C8F80050CAF800302B68C6F808A0FB
:102AA0002846DB68EE639847336830461B689847D2
:102AB000214628460EF0E8FE236820461B69984709
:102AC00023685B69204601B0BDE8F04F184700BF9E
:102AD0007945020807460208D9460208204702083D
:102AE000C3470208D8520208204D01201C4D012086
:102AF0002DE9F14FD0E9556A0746B06803681B6AB3
:102B0000984742F20B73984205D8444B444AA3219C
:102B1000444820F017FA706803681B6A98470F282A
:102B200003D8414B3E4AA421F2E7F06803681B6AD0
:102B300098470B2803D83D4B394AA521E8E70CF00C
:102B4000F3FCDFF8F09004300CF013FDD9F800002E
:102B500010B10368DB689847D9F8000010B103682A
:102B60001B689847DFF8D080D8F8000010B10368E0
:102B70005B699847D7F83C0110B103685B689847D8
:102B8000D8F8000010B103681B689847D7F83C01DB
:102B900010B103689B689847F0680021FFF7FEFEBC
:102BA0004FF0000B224BC0F804B0044680F808B088
:102BB0000360B068036859465B6A9847054601F0B0
:102BC00089FC7068036859465B6A9847294606463F
:102BD00001F0B6FB331DC7F83C61C9F80040C8F8E6
:102BE0000050CAF800302B68C6F808A02846DB68F9
:102BF000EE639847336830461B689847214628465D
:102C00000EF042FE236820461B69984723685B69E3
:102C1000204601B0BDE8F04F184700BF79450208D3
:102C200066480208D946020820470208C34702083E
:102C3000D8520208204D01201C4D01202DE9F14FF2
:102C4000D0E9556A0746B06803681B6A9847B0F533
:102C5000437F05D2434B444AA321444820F072F9F4
:102C6000706803681B6A98470F2803D8404B3E4A98
:102C7000A421F2E7F06803681B6A98470B2803D881
:102C80003C4B394AA521E8E70CF04EFCDFF8EC900C
:102C900004300CF06EFCD9F8000010B10368DB685A
:102CA0009847D9F8000010B103681B689847DFF80F
:102CB000D080D8F8000010B103685B699847D7F856
:102CC0003C0110B103685B689847D8F8000010B168
:102CD00003681B689847D7F83C0110B103689B68EC
:102CE0009847F0680021FFF759FE4FF0000B224B88
:102CF000C0F804B0044680F808B00360B068036808
:102D000059465B6A9847054601F000FB7068036806
:102D100059465B6A98472946064601F0ADFA331DCD
:102D2000C7F83C61C9F80040C8F80050CAF8003044
:102D30002B68C6F808A02846DB68EE63984733681E
:102D400030461B689847214628460EF09DFD2368B3
:102D500020461B69984723685B69204601B0BDE89F
:102D6000F04F18477945020838490208D946020849
:102D700020470208C3470208D8520208204D01200C
:102D80001C4D0120406A7047806A704770478A88EE
:102D90000B8810B5D20A4C88C1699BB251F8220049
:102DA00043EA0443184410BD10B50446BAB1107B81
:102DB00068B1537BD27A1B0203F4E0631A43236A9F
:102DC00003EB82031A888A4202D193F9020010BDF4
:102DD00005D8013880B204330028F3D1F7E700208A
:102DE000F5E710B52C2104461FF06FF9204610BD01
:102DF00030B58BB00446BDF860500895BDF85C5006
:102E000007959DF8505006959DF84C5005959DF8F6
:102E1000485004959DF8445003959DF84050029504
:102E20009DF83C500195BDF8385000950EF086F99C
:102E3000064B2360159BE361169B2362199B63621B
:102E40001A9BA36220460BB030BD00BFFC520208A3
:102E5000704770477047704770477047704710B5AC
:102E6000A02104461FF031F9204610BD2DE9F041A4
:102E70001D460368BDF918701B6B0446164698473B
:102E80002368314620465B6B9847236829462046D5
:102E90009B6B9847236839462046DB6BBDE8F041C1
:102EA00018470000094A02604FF4807100228184B3
:102EB000FF21C0E90122C0E90322C0E90522C0E9DF
:102EC000072280F826108262704700BF7C5A0208F1
:102ED0002DE9F341044626460EF02AFB00251D4B42
:102EE000E56346F8403B04F16C073046FFF7DAFF34
:102EF0003846FFF7D7FF184BE3664FF4A0732A4616
:102F0000C4F89850A4F89C50294600933046F0230A
:102F1000FFF7ACFF04F104084FF07F43A36631468E
:102F2000404606F00DFE4FF4967300930A22384691
:102F300096231421FFF79AFF4FF0FF334046C4E970
:102F40002533A4F89C50394606F0FAFD204602B01D
:102F5000BDE8F08164530208E45A0208806A7047B1
:102F600070477047704770477047704790F82C3033
:102F70004BB100F16C021268C2653BB100F1740301
:102F80001B680366704700F16802F4E700F1700304
:102F9000F6E730B4C26844685510034604EB62009B
:102FA000D20748BF62599B6830BC48BFD358184706
:102FB0000346406830B19A681AB9D86800F0010039
:102FC00070470120704790F82D3080F85A307047D4
:102FD00010B5782104461FF078F8204610BD10B5D2
:102FE000102104461FF071F8204610BD10B54FF4B3
:102FF000437104461FF069F8204610BD38B500F54E
:10300000F073994204460D4603D10CF08DFAFFF798
:10301000B5FC04F1F0039D4203D123682046DB6A2E
:10302000984704F5B4739D4203D1236820461B6B77
:10303000984704F52174A54205D10CF075FABDE856
:103040003840FFF78BBC38BD10B50446006B50B15B
:103050000368DB68984730B1206B036821469B68A2
:10306000BDE81040184710BD0B7970B590F82C6082
:1030700004460D460BB916B170BD002EFCD0B3FA54
:1030800083F35B0984F82C3023682046D3F88C3016
:103090009847236820465B699847002EECD02B792F
:1030A000012BE9D123682046D3F88830BDE8704071
:1030B00018470000074A02600022C0E90122C0E967
:1030C0000322C0E90522C0E907224FF480728284FE
:1030D000704700BF1C5C020870B5036804461B6B98
:1030E000154698472368294620465B6BBDE870402B
:1030F0001847000038B5262204460D46002120F06E
:1031000028F92046FFF7D6FF064B23602B88E3847F
:10311000FF23204684F82830294609F009FE20467E
:1031200038BD00BF4C5B0208036880F82D10D3F84F
:103130009030184770B50446FFF7BCFF4FF47F434B
:103140002646A3850123002584F824300D4BA56273
:10315000256346F8343B3046FFF7A4FE0A4B636311
:103160002A4629463046C4E91A55C4E91C55256645
:10317000A4F86450FFF7B0FF2046314606F0E0FCAB
:10318000204670BD98530208E45A020810B4036741
:10319000019B436703685DF8044BD3F88C30C0E9AA
:1031A0001A1218472DE9F04F044689B0A0460025B1
:1031B0000EF0BEF9A04BE56348F8403B04F16C0B00
:1031C0004046FFF76FFE04F1980A4FF6FF7607A915
:1031D000584604F1C409ADF81C60FFF78BFF07A93E
:1031E000504604F1F007ADF81C60FFF783FF07A914
:1031F0004846ADF81C60FFF77DFF3846FFF79AFFA1
:1032000004F5B47318460293FFF794FF04F5F073C6
:1032100018460393FFF78EFF04F5167307A91846A7
:103220000593ADF81C60FFF765FF04F521731846A0
:103230000493FFF77FFF814BC4E9BF34804BC4E99F
:10324000C1354FF4A0732A46009329464046F02327
:10325000261DFFF70BFE4FF07F43A3664146304625
:1032600006F06EFCA82258465821FFF735FF07A943
:103270005846ADF81C5009F05BFD5946304606F043
:103280005FFC2A465046D021FFF726FF032307A9FB
:103290005046ADF81C3009F04BFD5146304606F063
:1032A0004FFC2C224846D021FFF716FF082307A920
:1032B00048464FF02008ADF81C3009F039FD49466A
:1032C000304606F03DFC43462A46294604F59270F6
:1032D000CDF80080FFF7CAFD5A4BDFF870B15A49AC
:1032E0004FF0050AA4F854A10093A3F133135A46F2
:1032F000A3F54C533846FFF749FF04F53F792946BB
:103300003846FFF711FF43462A46C4F82091384655
:10331000CDF80080D021FFF7A9FD3946304606F0F0
:103320000FFC43462A46294604F5CE70CDF80080AE
:10333000FFF79CFD434BA4F8CCA10093A3F13313FA
:103340005A4602984049A3F54C53FFF71FFF0298D5
:103350002946FFF7E9FE43460298C4F898912C22CB
:10336000CDF80080D021FFF781FD1A270299304661
:1033700006F0E6FB2A46294604F50570009740232F
:10338000FFF774FD2F4BA4F844A20093A3F133136D
:103390005A4603982C49A3F54C53FFF7F7FE0398C0
:1033A0002946FFF7C1FE40230398C4F81092BB22C0
:1033B00000975821FFF75AFD0399304606F0C0FBED
:1033C000F12205986821FFF787FE09230598ADF8DB
:1033D0001C3007A909F0ACFC0599304606F0B0FB9B
:1033E00043462A46294604F52E70CDF80080FFF7A3
:1033F0003DFD144BA4F8E8A20093A3F133135A4601
:1034000004981149A3F54C53FFF7C0FE04982946D0
:10341000FFF78AFE0498C4F8B4924346F122CDF82F
:1034200000806821FFF722FD3046049906F088FBF2
:10343000204609B0BDE8F08F4C540208345402080D
:10344000FD2F0008996633FF996600FFCC9900FFB5
:1034500030B5036885B06D460181D3F884300146EC
:1034600004462846984795E807003C3484E807005E
:1034700005B030BD30B5036885B06D464181D3F8E5
:103480008430014604462846984795E807003C34B6
:1034900084E8070005B030BD0022028042808280AF
:1034A000C280704780F83610704770B503680446D4
:1034B0001B6B154698472368294620465B6EBDE87E
:1034C0007040184700207047806C70477047704705
:1034D000704710B54C2104461EF0F7FD204610BD84
:1034E00010B5EC2104461EF0F0FD204610BD08B5D5
:1034F000FFF72EF808BD0000036870B55E6B124B35
:103500001B6804468DB22BB9104B114A6C2111482F
:103510001FF018FD1049828D0988914203D80F4B86
:103520000B4A6D21F3E713F812200D4B1B6853F87B
:10353000220003681B6B9847291A3346204609B2BC
:10354000BDE87040184700BF304D01200A4A02080C
:103550004C4A0208874A0208344D0120CE4A02082C
:10356000384D012000224FF0FF31C0E90021826078
:10357000704700002DE9F04F044689B0264600252B
:103580000DF0D6FF504BE56346F8403B04F16C0765
:103590003046FFF787FC3846FFF784FC4B4BE36669
:1035A0004FF48073A4F8C4304FF6FF73A4F8CC3006
:1035B0004FF47F03C4F8D430454BC4F8A0304FF02B
:1035C000FF3B4FF4A073DFF82891C4F898502A46C7
:1035D0003046C4E92955C4E92B55C4E92D55C4E941
:1035E0002F55C4E938B5A4F89C50C4F8C890C4F865
:1035F000D050A4F8D850C4F8DC50C4F8E85029469C
:1036000000934FF07F4AF02304F10408FFF72EFCEB
:1036100031464046C4F868A006F092FA4FF496731B
:103620000A223846009314219623FFF71FFC04F169
:10363000A00639464046C4E925BBA4F89C5006F0D4
:103640007FFA182231213046FFF746FDD4F8A0302A
:10365000C4F8D0A002AFD3F88430A4F8D4503146D7
:103660003846984797E8070004F1DC0383E8070031
:10367000184B1B682BB9184B184A602118481FF0CB
:1036800061FC184B1B881BB9174B144A6121F5E7E5
:10369000164B2946186800F093F9C4F8E800304644
:1036A00009F0CAF9012306A93046ADF81C30CDF85F
:1036B000189009F0E1F94046314606F041FA2046FB
:1036C00009B0BDE8F08F00BF18550208E45A02089F
:1036D00088540208304D01200A4A02080C4B0208A7
:1036E000874A0208344D0120CE4A02083C4D012091
:1036F0005C5202087047000030B5164D2C6814F07B
:1037000001048FB0BFF35B8F20D128461EF0DFFC91
:10371000E0B13F230993104B0893104B1049114817
:103720000A940122CDE906430423CDE903320A239A
:103730000093CDE90B44CDE901440594FFF758FB14
:1037400009481FF01DFC28461EF0CDFC05480FB0AF
:1037500030BD00BFC43E0020E8690208F4690208D9
:103760002C690208C83E0020F536000870470000AA
:1037700030B5164D2C6814F001048FB0BFF35B8F89
:1037800021D128461EF0A3FCE8B13F230993104B3A
:103790000893104B104911480A94CDE906430122C1
:1037A0000423CDE90332142300930B22CDE90B440B
:1037B000CDE901440594FFF71BFB09481FF0E0FB2E
:1037C00028461EF090FC05480FB030BDF43E0020A6
:1037D000EC690208F86902083C690208F83E00201A
:1037E0006D3700087047000030B5164D2C6814F096
:1037F00001048FB0BFF35B8F20D128461EF067FC19
:10380000E0B13F230993104B0893104B1049114826
:103810000A940122CDE906430423CDE9033228238B
:103820000093CDE90B44CDE901440594FFF7E0FA9C
:1038300009481FF0A5FB28461EF055FC05480FB0AF
:1038400030BD00BF243F0020F0690208FC69020877
:10385000D8690208283F0020E5370008002070479B
:10386000002070470EB403B503AB002153F8042BBE
:1038700001930CF0E1FE02B05DF804EB03B0704779
:103880000CB407B504AB53F8042B01930CF0D4FE31
:1038900003B05DF804EB02B070470000436C10B554
:1038A000044673B3038F2BB9184B194AC521194825
:1038B0001FF048FBC38E00EB43035B8C0BB30EF091
:1038C00022FD238F012B03D8134B144ACB21EEE7A3
:1038D000E28E531C9BB2092B194688BFA3F10A0143
:1038E00004EB410140F63F10498C814209D10A2B7B
:1038F00004EB420228BF002304EB4303508C58849E
:1039000051842046BDE810400EF000BC574B020821
:10391000604B02080B4C0208554C0208634C02082D
:103920000EF0BBBB10B586B002AC84E806001A46A8
:103930000AAB05930193099B00932146089B0BF06A
:1039400091F906B010BD000038B518BB124B1348F2
:103950001C681349B4B122682244026062682244A0
:103960000A60A26814440F4B00221A8000F038F855
:10397000054600F033F80C4B1C600C4B1D600C4BE3
:10398000188007E00B4B03600B4B0B600B4B1C6864
:10399000002CE8D138BD00BF603F0020583F002018
:1039A000543F00205C3F0020304D0120384D012065
:1039B000344D0120086A0208006A0208246A0208DD
:1039C000044B1B6853F82100034B1B6803EB4000BA
:1039D000704700BF543F0020583F0020022070472E
:1039E00000487047643F002010B5FFF7C1FE044C4B
:1039F0002060FFF7F9FE6060FFF77EFEA06010BD5B
:103A0000643F002010B5002404600C6014601C604A
:103A100010BD704710B54FF4AE7104461EF055FB53
:103A2000204610BD10B50446D0F8580100F013F838
:103A30002046BDE810400BF0F9BD000010B504466B
:103A4000FEF748FF014B2360204610BD4C5502088D
:103A50000022026070477047704704387047704713
:103A600010B5102104461EF030FB204610BDA0F119
:103A70000400F5E700228260024A026018324260C8
:103A8000C1607047A055020870470000134B70B525
:103A90000446036042F2247542F25466B54205D0F2
:103AA000635960191B689847343DF7E742F25C653B
:103AB000635960191B682C3D9847B5F57F7FF7D196
:103AC000635960191B682C3D9847B5F59E7FF7D167
:103AD0002046FFF7C2F9204670BD00BFC855020856
:103AE00010B50446FFF7D2FF204642F278711EF06F
:103AF000ECFA204610BD2DE9F04100F51D540F23CE
:103B000014390A3A91FBF3F192FBF3F2173402F104
:103B1000040801F1040E00F1A0034FF00A0C0D4659
:103B20000CFB0237264616F8010F28B1132A0DDCCC
:103B3000092D0BD8785D50B901357545F3D10132A7
:103B4000424504F10404EAD1002000E00120BDE870
:103B5000F081FFF783B900002DE9F04F87B01C46D4
:103B6000031D05461746002600F5B47A00930AEBBC
:103B700006094FF000084946009808F1010806F0D0
:103B800020F8B8F1040F09F12C09F4D1B036B6F5DC
:103B9000307FECD1BFB207F13C0205F51D5892B25F
:103BA00008F11708A4B20023029205F5005B05EBAB
:103BB000030A3E46CDF80480019911F8012F0191C6
:103BC000012A19D10AF5B47922B231B248460393D9
:103BD000FFF782FA114BDBF87017DAF8682133F837
:103BE0001110126EADF81410484605A990470098C0
:103BF000494605F0A5FF039B029A0F36B6B29642DE
:103C00000AF12C0AD8D1B0330F34B3F5307F08F164
:103C10000408A4B2CBD107B0BDE8F08FF455020878
:103C20002DE9F3410546FFF753F9394B2B6005F5B4
:103C3000B47405F585664FF6FF7804F1B0072046A9
:103C400001A92C34ADF80480FFF754FABC42F6D138
:103C5000B442F2D105F51A5708374FF6FF783446CB
:103C600006F5DC76204601A92C34ADF80480FFF778
:103C700041FAB442F6D1BC422646F0D105F51D51B9
:103C800024482346183100220126FF249A80DA8036
:103C90001A815A819A81DA811A825A82DA611A84E7
:103CA0005A8483F8242083F8256083F826409A629A
:103CB0001860DA621A86C3E9052234338B42E5D1F3
:103CC00005F500545023C4F868370A23C4F86C374C
:103CD000C4F87027C4F874270021C82205F1A00099
:103CE0001FF037FB0C4B04F5EB6403F1100253F8A3
:103CF000041B44F8041B9342F9D128460A2350229E
:103D00000021FFF729FF284602B0BDE8F08100BF7F
:103D1000C8550208E45A02080256020800F500528B
:103D20000A23D2F8701730B4C2F86C375023C2F8A7
:103D300068370131072391FBF3F3C3EBC303C91ABF
:103D40000A4BC2F8701703EB011300F51D5218322D
:103D500003F1100453F8045B42F8045BA342F9D169
:103D600030BC0A235022FFF7F7BE00BF02560208FC
:103D70002DE9F04F00F5005489B0D4F87077032F87
:103D8000064666D004AD1022002128461FF0E1FA55
:103D9000EC4604F5EB6204F5ED6863461068516883
:103DA000E646AEE8030008324245F446F6D1002F5D
:103DB00014BF4FF001084FF002084FEA480A0022F2
:103DC0002846A5EB020CAAEB020919464FF0000E9B
:103DD000002F41D191F800B08CF803B00EF1010E24
:103DE000BEF1040F01F101010CF1040CF0D101321C
:103DF000042A03F10403E3D100214FF00F0E4FF02A
:103E00000A08844600221CF8013BC3B1D4F8683785
:103E1000A3F11409D4F86C3799FBFEF99144B9F178
:103E2000090FA3F10A0393FBFEF30B441CD8132BD9
:103E30001AD808FB03634B4493F8A030A3B90132AE
:103E4000042AE0D10123013104290FD00430002BD2
:103E5000D7D109B0BDE8F08FB9F1030F9CBF91F83D
:103E600000B00CF818B0B9E70023ECE7002BF0D055
:103E700004F5EB620DF1200C2B4603CB634510607B
:103E800051601D4602F10802F6D13046D4F86C3775
:103E9000D4F868273946FFF75FFE301D09B0BDE84A
:103EA000F04F0CF0F3BC2DE9F04F9BB006465022CA
:103EB000002106A81FF04DFA002706F25D12132319
:103EC0001046002110F8014F44B101310A29F9D1FF
:103ED0001AA901EB8701013741F8503C013B591CFD
:103EE000A2F10A02ECD1002F40F3BD806FF02A044A
:103EF00074430023A4F5B9540DF1180901934FF050
:103F00000A0B06F1040A0C3C59F8045B0BFB05652F
:103F10009F354FF000082C2202FB0541504608F166
:103F2000010805F04EFE0023B8F10A0F05F8013F25
:103F30004FF02C02F0D1019A0132974208D1069F2E
:103F4000002F16DA50461BB0BDE8F04F0CF09EBCB7
:103F50000192D9E7224650F8044B019DBC42C8BFEC
:103F60000131954202F10104F4D1002905DC013F41
:103F7000E6E7002206A81146EDE739440A2000FBD7
:103F800007F4C1EB01124FF4DC7C06F19F090CFB36
:103F900001650A320294A144414306F5856412B2D8
:103FA0000CFB07440391AB464FF0140819F8011FAE
:103FB00000294AD0029903980592A9EB01014FF01C
:103FC000010C01F800C0D4E9010105F22C4E89F87A
:103FD00000308EE80300D4E9030105F2344E8EE888
:103FE00003006169C5F83C14A169C5F84014E16992
:103FF000C5F84414B4F92010A5F84814B4F92210F7
:10400000A5F84A1494F8241085F84C1494F8251057
:1040100085F84D14E18CABF84E1405F5856C94F8D9
:1040200028108BF8501460460FFA88F1CDF810C0B4
:10403000FFF752F804980146504605F081FD2146ED
:10404000504605F0BEFD059A002308F10F081FFA3F
:1040500088F8B8F1AA0F05F12C050BF12C0B04F12F
:104060002C04A3D183E71BB0BDE8F08F2DE9F04FFE
:1040700000F51D5A85B005460AF1170A4FF00009F0
:1040800000F5005BC9EB09139BB200934FF00008E9
:10409000534613F8012F002A3DD0DBF86C27DBF8DC
:1040A00068170193A2F10A060F230A2096FBF3F684
:1040B0004E44A1F1140400FB065094FBF3F4444475
:1040C0002044012780F8A0704FF4DC7046432C2078
:1040D000009B444306F585672744C8EB08102F442E
:1040E0001A440144344412B209B238462C44FEF753
:1040F000F3FF124BDBF87017D4F8282433F81110B3
:10410000126EADF80C10384603A990473946281DA9
:1041100005F016FD019B08F10108B8F1040FB8D1B4
:1041200009F10109B9F1040F0AF1040AAAD12846DC
:1041300005B0BDE8F04FFFF7B6BE00BFF45502086A
:104140002DE9F34100F500553223D5F874670136A7
:10415000C5F87467B6FBF3F203FB126604466EBB48
:104160003D4F8DF80760386803F098FC70B14FF050
:10417000FF33386832460DF1070103F05FFC9DF80C
:104180000730442B45D01CD8432B58D0D5F86C674A
:10419000D5F86887D5F870770F363B4632464146EA
:1041A0002046FFF7A8FC00284DD02046FFF75EFF11
:1041B0002046FFF7B3FD201D0CF068FB02B0BDE800
:1041C000F0814C2B1AD0522BE0D10F26D5F868374E
:1041D000D5F86C87D5F870771E4442463B46314689
:1041E0002046FFF788FC0028D0D1C5F86867434611
:1041F000324639462046FFF7AFFCC7E76FF00E06A0
:10420000E4E7C5F86C6733463A4641462046FFF777
:10421000A3FCD5F86C67D5F86877D5F870870F36AA
:104220004346324639462046FFF765FC0028E8D071
:104230002046FFF71BFF2046FFF770FDA6E720464C
:10424000FFF796FDA2E7C5F86C673346424639464C
:104250002046FFF781FCAEE7A80300207047043832
:104260007047704710B5102104461DF02EFF204600
:1042700010BDA0F10400F5E700228260024A02604E
:1042800018324260C16070477C56020870470000D7
:1042900013B5084C002320688DF8073003F0FEFBAF
:1042A000024628B920680A230DF1070103F095FBA7
:1042B00002B010BDA403002013B5084C01232068F0
:1042C0008DF8073003F0EAFB024628B920680A237C
:1042D0000DF1070103F081FB02B010BDA403002023
:1042E00010B5034B03600446FEF73EFE204610BDAA
:1042F000A456020810B50446FFF7F2FF20464FF41B
:1043000043711DF0E2FE204610BD000010B50446CA
:10431000FEF748FF014B2360204610BDA45602085B
:10432000FEF723BE704704387047704710B5102160
:1043300004461DF0CAFE204610BDA0F10400F5E7BA
:1043400000228260024A026018324260C1607047F7
:10435000E05602087047000038B50D4B0360054673
:1043600042F2A864B4F5896F05D02B5928191B684F
:1043700098472C3CF6E72B5928191B682C3C98478A
:10438000B4F5C47FF7D12846FFF7A1F8284638BD19
:104390000857020810B50446FFF7DEFF204642F238
:1043A0000C711DF092FE204610BD2DE9F04100F584
:1043B0001B540F2314390A3A91FBF3F192FBF3F2E9
:1043C000133402F1040801F1040E00F1EC034FF084
:1043D0000A0C0D460CFB0237264616F8010F28B1D1
:1043E000132A0DDC092D0BD8785D50B901357545C0
:1043F000F3D10132424504F10404EAD1002000E087
:104400000120BDE8F081FFF763B800002DE9F04F0F
:1044100087B01C46031D05461746002600F5DA7ACC
:1044200000930AEB06094FF000084946009808F18E
:10443000010805F0C6FBB8F1040F09F12C09F4D10D
:10444000B036B6F5307FECD1BFB207F13C0205F5CE
:104450001B5892B208F11308A4B20023029205F58A
:10446000005B05EB030A3E46CDF80480019911F884
:10447000012F0191012A19D10AF5DA7922B231B25C
:1044800048460393FEF728FE114BDBF8EC16DAF8EA
:10449000B42133F81110126EADF81410484605A976
:1044A00090470098494605F04BFB039B029A0F3654
:1044B000B6B296420AF12C0AD8D1B0330F34B3F514
:1044C000307F08F10408A4B2CBD107B0BDE8F08F6B
:1044D000AC5702082DE9F04F04468DB0FFF74AF8BB
:1044E000714B236004F5DA7604F274454FF6FF78D9
:1044F00006F1B00730460AA92C36ADF82880FEF741
:10450000F9FDBE42F6D1AE42F2D104F51B56143687
:104510004FF6FF7805F5DC7728460AA92C35ADF86B
:104520002880FEF7E7FDBD42F6D1B542F2D104F591
:10453000005750230021C7F8E4360A23C7F8E836AD
:10454000C7F8EC16C7F8F016C82204F1EC001EF00C
:1045500000FF564B07F2D46203F1100153F8040B2D
:1045600042F8040B8B42F9D10A2350220021204645
:10457000FFF74CFFDFF844A14FF00709DAE9000527
:10458000DAF8083003934FF4DC730F21A5F10A0227
:1045900092FBF1F25343039E0093444B03EB06134B
:1045A00001930A26A0F1140393FBF1F303F1EC014C
:1045B00006FB0212A218ADB2029205F13C0292B2C1
:1045C00007922C2202FB0343089383B204933C33EB
:1045D0009BB206932BB20593089BDDF8108003F283
:1045E0007446009B1E44DDE9013B13F8012BD2B158
:1045F00009934FF00103059A8BF800300FFA88F108
:104600003046FEF769FD2A4B0399326833F81110E2
:10461000126EADF8281030460AA990473146201D89
:1046200005F08EFA099B069A08F10F081FFA88F820
:1046300090450BF1010B06F12C06D6D1009B03F53A
:10464000DC730093019B04330193029B0A330F3503
:104650000293079BADB29D42BCD1B9F101090AF1A9
:104660000C0A8BD104F51B553835124AC7F8F4965D
:104670004B46142128460EF0EFFBC4F8E8500E4BD1
:104680000A9304F1A00501230AA92846ADF82C30AD
:1046900008F0F2F9284608F0CFF928460CF0F6F8B1
:1046A00020460DB0BDE8F08F08570208BA5702083F
:1046B000AC570208354D02085C5202083457020814
:1046C00000F500520A23D2F8EC1630B4C2F8E836EE
:1046D0005023C2F8E4360131072391FBF3F3C3EB17
:1046E000C303C91A0A4BC2F8EC1603EB011300F519
:1046F0001B52143203F1100453F8045B42F8045BBC
:10470000A342F9D130BC0A235022FFF77FBE00BF7D
:10471000BA5702082DE9F04F00F5005489B0D4F8DB
:10472000EC76032F064666D004AD10220021284601
:104730001EF00FFEEC4604F2D46204F2E468634615
:1047400010685168E646AEE8030008324245F44678
:10475000F6D1002F14BF4FF001084FF002084FEAC6
:10476000480A00222846A5EB020CAAEB02091946CA
:104770004FF0000E002F41D191F800B08CF803B03B
:104780000EF1010EBEF1040F01F101010CF1040C58
:10479000F0D10132042A03F10403E3D100214FF0E8
:1047A0000F0E4FF00A08844600221CF8013BC3B1EB
:1047B000D4F8E436A3F11409D4F8E83699FBFEF9ED
:1047C0009144B9F1090FA3F10A0393FBFEF30B44E3
:1047D0001CD8132B1AD808FB03634B4493F8EC3016
:1047E000A3B90132042AE0D10123013104290FD0F9
:1047F0000430002BD7D109B0BDE8F08FB9F1030F19
:104800009CBF91F800B00CF818B0B9E70023ECE7B2
:10481000002BF0D004F2D4620DF1200C2B4603CB18
:104820006345106051601D4602F10802F6D1304622
:10483000D4F8E836D4F8E4263946FFF7E7FD301D12
:1048400009B0BDE8F04F0CF021B800002DE9F04FA1
:104850009DB005465022002108A81EF07AFD0024D4
:1048600005F2A91213231046002110F8016F46B17A
:1048700001310A29F9D11CA901EB8401013441F865
:10488000503C013B591CA2F10A02ECD1002C40F330
:10489000EA8005F50052012CD2F8F4364FD10A33E4
:1048A00005F51B563836C2F8F43614216F4A3046E7
:1048B0000EF0D2FA6E4BC5F8E86005F1A00606A925
:1048C000304606930123ADF81C3008F0D5F8304689
:1048D00008F0B2F830466FF02A066E430BF0D6FFB0
:1048E000A6F50F5600230DF1200901934FF00A0B96
:1048F00005F1040A303E59F8047B0BFB0757EB37F0
:104900004FF000082C2202FB0761504608F1010815
:1049100005F057F90023B8F10A0F07F8013F4FF0EF
:104920002C02F0D1019A0132944211D1089F002F3C
:104930001FDA50461DB0BDE8F04F0BF0A7BF022CA8
:1049400001D11E33ACE7032C0CBF32336433A7E72D
:104950000192D0E7224650F8044B019EBC42C8BFEA
:104960000131964202F10104F4D1002905DC013F36
:10497000DDE7002208A81146EDE739440A2000FBD4
:1049800007F4C1EB01124FF4DC7C05F1EB090CFBE1
:1049900001560A320294A144414305F2744412B212
:1049A0000CFB07440391B3464FF0140819F8011F9C
:1049B00000294AD0029903980592A9EB01014FF012
:1049C000010C01F800C0D4E9010106F58F6E89F8E9
:1049D00000308EE80300D4E9030106F5906E8EE8FE
:1049E00003006169C6F88814A169C6F88C14E169EE
:1049F000C6F89014B4F92010A6F89414B4F9221053
:104A0000A6F8961494F8241086F8981494F82510B3
:104A100086F89914E18CABF89A1406F2744C94F869
:104A200028108BF89C1460460FFA88F1CDF810C05E
:104A3000FEF752FB04980146504605F081F82146E6
:104A4000504605F0BEF8059A002308F10F081FFA3A
:104A500088F8B8F1AA0F06F12C060BF12C0B04F123
:104A60002C04A3D183E71DB0BDE8F08F354D0208BB
:104A70005C5202082DE9F04F00F51B5A85B005463F
:104A80000AF1130A4FF0000900F5005BC9EB0913A6
:104A90009BB200934FF00008534613F8012F002AF1
:104AA0003DD0DBF8E826DBF8E4160193A2F10A0614
:104AB0000F230A2096FBF3F64E44A1F1140400FBE9
:104AC000065094FBF3F444442044012780F8EC7032
:104AD0004FF4DC7046432C20009B444306F274479D
:104AE0002744C8EB08102F441A440144344412B23E
:104AF00009B238462C44FEF7EFFA124BDBF8EC16FD
:104B0000D4F8742433F81110126EADF80C10384636
:104B100003A990473946281D05F012F8019B08F1BA
:104B20000108B8F1040FB8D109F10109B9F1040F76
:104B30000AF1040AAAD1284605B0BDE8F04FFFF7F4
:104B400085BE00BFAC5702082DE9F34100F50055C2
:104B50003223D5F8F0660136C5F8F066B6FBF3F2FD
:104B600003FB126604466EBB3D4F8DF80760386844
:104B700002F094FF70B14FF0FF33386832460DF108
:104B8000070102F05BFF9DF80730442B45D01CD88D
:104B9000432B58D0D5F8E866D5F8E486D5F8EC76FE
:104BA0000F363B46324641462046FFF7FEFB0028C3
:104BB0004DD02046FFF75EFF2046FFF781FD201D08
:104BC0000BF064FE02B0BDE8F0814C2B1AD0522BE2
:104BD000E0D10F26D5F8E436D5F8E886D5F8EC769E
:104BE0001E4442463B4631462046FFF7DEFB002886
:104BF000D0D1C5F8E4664346324639462046FFF731
:104C000005FCC7E76FF00E06E4E7C5F8E866334633
:104C10003A4641462046FFF7F9FBD5F8E866D5F855
:104C2000E476D5F8EC860F364346324639462046C0
:104C3000FFF7BBFB0028E8D02046FFF71BFF20460C
:104C4000FFF73EFDA6E72046FFF764FDA2E7C5F8A3
:104C5000E8663346424639462046FFF7D7FBAEE7C3
:104C6000A8030020F02070474FF4A070704729205F
:104C7000FCF7CAB92820FCF7C7B908B5FCF798F9C2
:104C8000CA20FCF7C1F9C320FCF7A2F90820FCF701
:104C90009FF95020FCF79CF9CF20FCF7B5F90020D4
:104CA000FCF796F9C120FCF793F93020FCF790F956
:104CB000ED20FCF7A9F96420FCF78AF90320FCF742
:104CC00087F91220FCF784F98120FCF781F9E820AC
:104CD000FCF79AF98520FCF77BF90020FCF778F9BE
:104CE0007820FCF775F9CB20FCF78EF93920FCF71A
:104CF0006FF92C20FCF76CF90020FCF769F93420DF
:104D0000FCF766F90220FCF763F9F720FCF77CF961
:104D10002020FCF75DF9EA20FCF776F90020FCF78B
:104D200057F90020FCF754F9B120FCF76DF9002089
:104D3000FCF74EF91B20FCF74BF9B620FCF764F9A1
:104D40000A20FCF745F9A220FCF742F9C020FCF745
:104D50005BF91020FCF73CF9C120FCF755F9102055
:104D6000FCF736F9C520FCF74FF94520FCF730F980
:104D70001520FCF72DF9C720FCF746F99020FCF729
:104D800027F93620FCF740F9C820FCF721F9F2207A
:104D9000FCF73AF90020FCF71BF9B020FCF734F9D6
:104DA000C220FCF715F9B620FCF72EF90A20FCF713
:104DB0000FF9A720FCF70CF92720FCF709F90420CC
:104DC000FCF706F92A20FCF71FF90020FCF700F990
:104DD0000020FCF7FDF80020FCF7FAF8EF20FCF7C4
:104DE000F7F82B20FCF710F90020FCF7F1F8002071
:104DF000FCF7EEF80120FCF7EBF83F20FCF7E8F8B1
:104E0000F620FCF701F90120FCF7E2F80020FCF79E
:104E1000DFF80620FCF7DCF82C20FCF7F5F8C820BA
:104E2000FCF740F92620FCF7EFF80120FCF7D0F85A
:104E3000E020FCF7E9F80F20FCF7CAF82920FCF77E
:104E4000C7F82420FCF7C4F80C20FCF7C1F80E20AA
:104E5000FCF7BEF80920FCF7BBF84E20FCF7B8F8C9
:104E60007820FCF7B5F83C20FCF7B2F80920FCF7F5
:104E7000AFF81320FCF7ACF80520FCF7A9F81720D1
:104E8000FCF7A6F81120FCF7A3F80020FCF7A0F827
:104E9000E120FCF7B9F80020FCF79AF81620FCF79F
:104EA00097F81B20FCF794F80420FCF791F81120E8
:104EB000FCF78EF80720FCF78BF83120FCF788F818
:104EC0003320FCF785F84220FCF782F80520FCF738
:104ED0007FF80C20FCF77CF80A20FCF779F82820F2
:104EE000FCF776F82F20FCF773F80F20FCF770F82A
:104EF0001120FCF789F8C820FCF7D4F82920FCF72A
:104F000083F8BDE808402C20FCF77EB808B5FCF714
:104F10004FF80321D320FCF793F880B208BD10B5F9
:104F2000C4B2022203212046FBF7F8FF0A20FCF757
:104F30003DF8204600220321FBF7F0FFBDE81040BA
:104F40000220FCF733B838B50446E4B2FBF7E4FFBF
:104F500000212046FBF7FAFF012105462046FBF71A
:104F6000F5FF40EA052080B238BD10B5C4B240213B
:104F70002046FBF7EBFF030607D54C212046FBF745
:104F8000E5FF003818BF012010BD01224B2120464B
:104F9000FBF7C4FF204600224B21FBF7BFFF002098
:104FA000F2E773B50423C4B20E461546D7210DEBC4
:104FB00003022046FBF7E4FF019B1BBA1A0DC3F363
:104FC0000B23328020462B8001224B21FBF7A6FFCA
:104FD00000224B212046FBF7A1FF02B070BD00006C
:104FE00010B50A4A1378984204460DD05178884289
:104FF0000AD00BB141B90123D454FBF78DFF2046F1
:10500000BDE81040FFF78BBF10BD00BF703F002010
:1050100010B5C4B209212046FBF798FF40F0010209
:10502000D2B220460921BDE81040FBF777BF10B58A
:10503000C4B209212046FBF789FF092100F0FE02D6
:105040002046BDE81040FBF769BF38B5C4B20D4635
:1050500020460A21FBF77AFF40EA0502D2B2204639
:105060000A21BDE83840FBF759BF10B50446FBF7ED
:1050700054FF20461F21FFF7E8FF2046BDE81040FF
:10508000FFF7C6BF38B5C4B20D4620460A21FBF76C
:105090005DFF20EA0502D2B220460A21BDE8384071
:1050A000FBF73CBF10B50446FFF7C1FF20461F21A8
:1050B000BDE81040FFF7E6BF10B5C0B20C460B21AB
:1050C000FBF744FF204010BD1F21FFF7F5BF0A4644
:1050D000C0B20B21FBF722BF1F21FFF7F8BF38B585
:1050E000C4B20D4620461721FBF730FF20EA050227
:1050F000D2B220461721BDE83840FBF70FBF70B58C
:10510000C4B2064604212046FBF720FF042100F02C
:10511000FB0205462046FBF701FF3046F021FFF772
:10512000DEFF05F0F80220460421FBF7F7FE4922D6
:1051300020212046FBF7F2FE0220FBF737FF204636
:1051400001222121FBF7EAFE20469A224121FBF7AA
:10515000E5FE204601224A21FBF7E0FE204601221F
:105160004B21FBF7DBFE204600224B21FBF7D6FE4E
:10517000204601225621FBF7D1FE2046012258216C
:10518000FBF7CCFE204601224021FBF7C7FE20465C
:10519000FF220B21FBF7C2FEBDE870400220FBF7A7
:1051A00005BF0000054BD3F8882042F47002C3F815
:1051B00088204FF000629A60704700BF00ED00E069
:1051C00008B50B4B1A6842F400721A601A6842F470
:1051D00080621A601A6842F480721A60032000F03C
:1051E0002FF80020FCF7FEF9FBF7C8FF002008BDF0
:1051F000003C0240034A044B11681B780B441360C7
:10520000704700BF743F002078000020014B1868F1
:10521000704700BF743F002038B50446FFF7F6FF23
:10522000631C1CBF054B1B78054618BFE418FFF72D
:10523000EDFF431BA342FAD338BD00BF7800002026
:105240000749CA6822F4E0620302120403F4E0632F
:10525000120C134343F0BF6343F40033CB60704739
:1052600000ED00E0164B30B5DC68C4F30224C4F155
:105270000703251D042B28BF0423062D4FF0FF35FF
:105280008CBF033C002405FA03F321EA0303A54085
:1052900022EA0502A340002843EA0203ACBF00F162
:1052A0006040084A4FEA0313B8BF00F00F00DBB2BA
:1052B000AABF00F56140135480F8003330BD00BF31
:1052C00000ED00E014ED00E0002807DB044A41098E
:1052D000012300F01F00834042F82130704700BFD7
:1052E00000E100E010B5044650B1437903F0FF023D
:1052F00013B90271FBF762FF01236371002010BD37
:105300000120FCE710B5044620B390F8393003F0D3
:10531000FF021BB980F83820FBF768FF022384F8EE
:105320003930236861681A6822F440320A431A60EF
:105330005A6BA16822F007020A435A631A6CE168AB
:105340006FF30D020A431A6400200123E06384F81E
:10535000393010BD0120FCE770477047036870B515
:105360005E681D68F207044614D5E90512D51A686F
:1053700022F480721A60C26B42F00102C263012201
:105380009A60042380F83930002380F8383043696C
:1053900003B19847B20616D5AB0414D523681A6832
:1053A00022F400521A6020229A60E36B43F0020359
:1053B000E363042384F83930002384F838306369C8
:1053C0000BB120469847300716D5290514D5236818
:1053D0001A6822F400621A6008229A60E36B43F0B4
:1053E0000403E363042384F83930002384F838305D
:1053F00063690BB12046984772070BD56B0509D539
:1054000023681A6822F480621A6004229A60204697
:10541000FFF7A2FFB00714D5A90512D523681A68B3
:1054200022F400721A6002229A60E36BE3630123A4
:1054300084F83930002384F8383023690BB12046D2
:105440009847F20613D5EB0411D523681A6822F4A5
:1054500080521A6010229A60E36BE363012384F8A0
:105460003930002384F838302046FFF776FF70BDCE
:10547000F0B590F83820012A03464FF002002BD0F7
:10548000012283F8382083F8390003EB0112D2E9B6
:105490000740556A174F44EA0040093C012C9CBF65
:1054A00005F07F4210434FEA01161A6888BF40EAB0
:1054B000056091B9516A394001435162012C9969E3
:1054C000916103D8596A21F07F4191620122002045
:1054D00083F8392083F83800F0BDD16939400143A1
:1054E000D1619919012C896911619CBF25F07F4513
:1054F0001562EBE7F0FFFC002DE9F74FDFF8BC91F8
:105500006C4A00230D6801249C4004EA0506AC4364
:1055100040F0B7804D68032705F003044FEA4308C5
:1055200007FA08FC671E012F6FEA0C0C34D8876855
:1055300007EA0C0ECF6807FA08F747EA0E078760FC
:10554000476827EA060EC5F300179F4047EA0E0793
:105550004760C76807EA0C0E8F6807FA08F747EA42
:105560000E07022CC76019D14FEAD30A00EB8A0A52
:1055700003F0070BDAF820704FEA8B0B4FF00F0E99
:105580000EFA0BFE27EA0E0E0F6907FA0BF747EA31
:105590000E07CAF8207001E0032CDAD1076804FA7C
:1055A00008F407EA0C073C4315F4403F046068D058
:1055B00000240194D9F8444044F48044C9F844409C
:1055C000D9F8444023F0030707F1804704F48044EE
:1055D00007F59C37019403F0030C019CD7F808E011
:1055E0004FEA8C0C0F2404FA0CF42EEA040E324C11
:1055F000A0424DD004F58064A0424BD004F58064F5
:10560000A04249D004F58064A04247D004F58064EC
:10561000A04245D004F58064A04243D004F58064E4
:10562000A04241D004F58064A0423FD004F58064DC
:10563000A0423DD004F58064A04214BF0A2409248E
:1056400004FA0CF444EA0E04BC609468F74315F4C1
:10565000801F0CBF3C4034439460D46815F4001F95
:105660000CBF3C403443D460546815F4003F0CBF79
:105670003C40344354601468ED0354BF3C40344311
:1056800014600133102B7FF43DAF03B0BDE8F08F01
:105690000024D5E70124D3E70224D1E70324CFE790
:1056A0000424CDE70524CBE70624C9E70724C7E790
:1056B0000824C5E7003C01400000024000380240D9
:1056C0000369194214BF0120002070470AB18161AB
:1056D00070470904FBE7436901EA030221EA030179
:1056E00041EA02418161704701684B6913F48063AC
:1056F0004FF0000210D06FF480634B6120230263EF
:1057000080F83D3080F83E20036C80F83C2043F068
:105710000403036401207047184670472DE9F846DA
:1057200006460F4691461D464FEA114A3368BAF1C4
:10573000010F0CBF5C699C6927EA0404A4B2B4FAA7
:1057400084F46409A14501D0002025E06A1CEED054
:10575000FFF75CFD089BC01AA84201D8002DE5D1D7
:105760003368BAF1010F0CBF5B699B6927EA030339
:105770009BB2B3FA83F35B099945D7D1002320226A
:10578000336386F83D2086F83E30326C86F83C3034
:1057900042F0200232640120BDE8F8862DE9F04194
:1057A00004460F46164698462568686927EA0000B1
:1057B00080B2C0B16B695A0517D52B6843F40073EA
:1057C0002B606FF480636B6120220023236384F8D5
:1057D0003D2084F83E30236C43F00403236400230F
:1057E00084F83C300120BDE8F081731CDDD0FFF768
:1057F0000DFDA0EB0800B04201D8002ED4D12368E3
:105800005A6927EA020292B2002ACDD00023202250
:10581000236384F83D2084F83E30236C1343DDE796
:1058200070B504460D46164623685B691B0601D514
:1058300000201EE02046FFF757FFC8B96A1CF3D0CE
:10584000FFF7E4FC801BA84201D8002DECD12368AF
:105850005B6913F08003E7D12022236384F83D20A5
:1058600084F83E30226C84F83C3042F020022264FE
:10587000012070BD2DE9F0431546026885B0DDE9D1
:105880000C789946136843F4807313600E463B46C8
:10589000CDF8008000224FF001110446FFF73EFFD3
:1058A000236838B11B68DB0502D54FF4007323640D
:1058B000032620E006F0FE061E611A4943463A46DA
:1058C0002046FFF76BFFA8B9236803905A6903923B
:1058D0009B690393424639462046039BFFF7A0FF8E
:1058E000064660B1236C042B01BF2268136843F4A1
:1058F000007313600126304605B0BDE8F083B9F1AE
:10590000010F236802D1EDB21D61F4E72A0A1A6182
:10591000394642462046FFF783FF0028E2D123683C
:10592000F1E700BF020001002DE9FF479A46036836
:1059300015461A6842F480621A601A68DDE90C782C
:1059400042F480721A600E463B46CDF80080002279
:105950004FF001110446FFF7E1FE236838B11B68E0
:10596000DB0544BF4FF400732364032021E05FFA9A
:1059700086F906F0FE061E612B4943463A4620464C
:10598000FFF70CFFA0B9236803905A6903929B6943
:105990000393424639462046039BFFF741FF58B127
:1059A000236C042B01BF2268136843F40073136057
:1059B000012004B0BDE8F087BAF1010F23681AD1C5
:1059C000EDB242461D6139462046FFF729FF0246E7
:1059D0000028E5D121680B6843F480730B602046F2
:1059E000CDF800803B464FF00111FFF797FE22688B
:1059F00060B11368B4E72A0A1A6139464246204664
:105A0000FFF70EFF0028CBD12368D9E749F0010347
:105A10001361054943463A462046FFF7BFFE00386A
:105A200018BF0120C5E700BF0200010070B50446A1
:105A30000D46164623685B695B0701D500201EE012
:105A40002046FFF751FEC8B96A1CF3D0FFF7DEFB12
:105A5000801BA84201D8002DECD123685B6913F0AC
:105A60000403E7D12022236384F83D2084F83E30EC
:105A7000226C84F83C3042F020022264012070BD88
:105A800070B504460D46164621684B6913F0400375
:105A900001D0002011E04A69D2060FD56FF0100244
:105AA0004A612022236384F83D2084F83E30236C31
:105AB0002364002384F83C30012070BDFFF7A6FB6F
:105AC000801BA84201D8002DDED123685B6913F04A
:105AD0004003D9D12022236384F83D2084F83E304E
